:020000040800F2
:1000000000000220DD060008D10600083177000854
:10001000D1060008D1060008D10600080000000043
:10002000000000000000000000000000D1060008F1
:10003000D106000800000000D1060008B5760008CF
:10004000D1060008D1060008D1060008D106000834
:10005000D1060008D1060008D1060008D106000824
:10006000D1060008D1060008D10600089D720008DC
:10007000A972000829580008B5720008C17200086A
:100080006D3C0108A5620008D1060008D1060008F1
:10009000D1060008D1060008D1060008D1060008E4
:1000A000D1060008D1060008D1060008D1060008D4
:1000B000FD2D0108092E0108152E0108D96200083E
:1000C000D1060008E5620008D1060008992601085B
:1000D000A52601087D3A0108AD3A0108E53A010874
:1000E000D1060008D106000800000000D106000873
:1000F000D1060008D1060008D1060008D106000884
:10010000D1060008D1060008212E0108B1260108F9
:100110001D3B0108553B0108D1060008D106000827
:10012000D1060008D1060008D526010809270108D4
:10013000A13C0108D1060008D1060008D10600083C
:1001400000000000000000000000000000000000AF
:10015000D1060008D1060008D10600088D3B010831
:10016000F1620008D1060008C5760008E9760008AB
:10017000D10600080D770008D1060008D106000856
:10018000D1060008D1060008C53B0108FD3B010867
:10019000BD260108C9260108D1060008D1060008BD
:1001A000D1060008D1060008D1060008D1060008D3
:1001B000E16E0008D1060008D1060008D10600084B
:1001C000D1060008D1060008D1060008D1060008B3
:1001D000D1060008D1060008D1060008D1060008A3
:1001E000D1060008D1060008D1060008D106000893
:1001F000D1060008D1060008D1060008D106000883
:10020000D1060008D1060008D1060008D106000872
:10021000D1060008D1060008D1060008D106000862
:10022000D1060008D1060008D10600080000000031
:10023000D1060008D106000800000000D106000821
:10024000D1060008D1060008D1060008D106000832
:10025000D1060008D1060008D1060008D106000822
:10026000D1060008D1060008D1060008D106000812
:10027000D1060008D1060008353C01080000000046
:10028000D1060008D1060008D106000800000000D1
:0802900000000000D106000887
:1002980081F0004102E000BF83F0004330B54FEA2F
:1002A80041044FEA430594EA050F08BF90EA020F9C
:1002B8001FBF54EA000C55EA020C7FEA645C7FEA2F
:1002C800655C00F0E2804FEA5454D4EB5555B8BF52
:1002D8006D420CDD2C4480EA020281EA030382EAC3
:1002E800000083EA010180EA020281EA0303362D55
:1002F80088BF30BD11F0004F4FEA01314FF4801C28
:100308004CEA113102D0404261EB410113F0004F39
:100318004FEA03334CEA133302D0524263EB4303F0
:1003280094EA050F00F0A780A4F10104D5F1200E8E
:100338000DDB02FA0EFC22FA05F2801841F10001E9
:1003480003FA0EF2801843FA05F359410EE0A5F1BD
:1003580020050EF1200E012A03FA0EFC28BF4CF0EE
:10036800020C43FA05F3C01851EBE37101F00045A4
:1003780007D54FF0000EDCF1000C7EEB00006EEBB1
:100388000101B1F5801F1BD3B1F5001F0CD349083B
:100398005FEA30004FEA3C0C04F101044FEA445292
:1003A80012F5800F80F09A80BCF1004F08BF5FEA19
:1003B800500C50F1000041EB045141EA050130BDF9
:1003C8005FEA4C0C404141EB0101013C28BFB1F50B
:1003D800801FE9D291F0000F04BF01460020B1FA56
:1003E80081F308BF2033A3F10B03B3F120020CDA29
:1003F8000C3208DD02F1140CC2F10C0201FA0CF007
:1004080021FA02F10CE002F11402D8BFC2F1200C6B
:1004180001FA02F120FA0CFCDCBF41EA0C01904021
:10042800E41AA2BF01EB0451294330BD6FEA04046A
:100438001F3C1CDA0C340EDC04F11404C4F1200255
:1004480020FA04F001FA02F340EA030021FA04F367
:1004580045EA030130BDC4F10C04C4F1200220FABE
:1004680002F001FA04F340EA0300294630BD21FAFC
:1004780004F0294630BD94F0000F83F4801306BFC2
:1004880081F480110134013D4EE77FEA645C18BFB6
:100498007FEA655C29D094EA050F08BF90EA020F4D
:1004A80005D054EA000C04BF1946104630BD91EA45
:1004B800030F1EBF0021002030BD5FEA545C05D148
:1004C8004000494128BF41F0004130BD14F5800487
:1004D8003CBF01F5801130BD01F0004545F0FE41FB
:1004E80041F470014FF0000030BD7FEA645C1ABF30
:1004F800194610467FEA655C1CBF0B46024650EA67
:10050800013406BF52EA033591EA030F41F4002192
:1005180030BD00BF90F0000F04BF0021704730B518
:100528004FF4806404F132044FF000054FF00001ED
:1005380050E700BF90F0000F04BF0021704730B5AE
:100548004FF4806404F1320410F0004548BF404283
:100558004FF000013EE700BF42004FEAE2014FEAD8
:1005680031014FEA02701FBF12F07F4393F07F4FB3
:1005780081F06051704732F07F4208BF704793F0B6
:100588007F4F04BF41F40021704730B54FF46074C9
:1005980001F0004521F000411CE700BF50EA0102CC
:1005A80008BF704730B54FF000050AE050EA010275
:1005B80008BF704730B511F0004502D5404261EBE5
:1005C80041014FF4806404F132045FEA915C3FF426
:1005D800D8AE4FF003025FEADC0C18BF03325FEAC3
:1005E800DC0C18BF033202EBDC02C2F1200300FA74
:1005F80003FC20FA02F001FA03FE40EA0E0021FA99
:1006080002F11444BDE600BF53B94AB9002908BF36
:1006180000281CBF4FF0FF314FF0FF3000F00CB83E
:10062800ADF1080C6DE904CE17F0E8F9DDF804E047
:10063800DDE9022304B07047704700BF0348044B4C
:10064800834202D0034B03B118477047DC030024F0
:10065800DC030024000000000548064B1B1AD90FD4
:1006680001EBA301491002D0034B03B118477047AF
:10067800DC030024DC0300240000000010B5064C55
:10068800237843B9FFF7DAFF044B13B10448AFF3FB
:1006980000800123237010BDE00300240000000047
:1006A800A082010808B5054B1BB105490548AFF301
:1006B8000080BDE80840FFF7CFBF00BF0000000082
:1006C800E4030024A0820108684620F007018D4653
:1006D800FEE700BF0C4A08B50C4B934204D0D21A6F
:1006E8000B49184617F07CF90A4A0B4B934204D081
:1006F800D21A0021184617F033F907F083FA17F0D9
:100708003DF902F0D7FDFEE7DC03002400000024D9
:10071800D8820108D83D0024E0030024704700BFB8
:10072800704700BF704700BFF8B50546A7480E469A
:10073800284405F500342DED088B15F0E3FCA4489A
:10074800F0EE409A284415F0DDFCD4ED1C7AF0EE6A
:1007580040AA236AF4EEE97AF1EE10FA00F3F48085
:10076800D4ED205A94ED1A7AD4ED1D7AF4EEEA7A93
:10077800F1EE10FA00F3A580D4ED216AD4ED1B7ACE
:10078800D4ED1E8A94ED1F8A37EE687A94F82C20EF
:1007980077EEC87AC4ED1C9AC4ED1DAAE7EE258A47
:1007A800A7EEA68AC4ED1E8A84ED1F8A2AB1F7EE49
:1007B800007A77EEE99A77EEEAAA013B9FED85BACF
:1007C80009EE103A29EE8B0AB8EE499A69EE299A91
:1007D80029EE2A9AC4ED169A78EEA98A84ED179A1A
:1007E80038EE098A16F0B8FCB0EE40AA2AEE8B0A59
:1007F80084ED14AA16F0B0FCFDEEE86AB0EE407A7B
:100808006A6843F6FF73FDEEC87A05EB8201F8EEDD
:10081800E65A84ED157A1A44D6F800C016EE906AA6
:1008280017EE904AC2F30D02C1F80CC09E4205F5BE
:1008380080316A6028BF1E469C42086978EEE58AC6
:1008480028BF1C463244034401EB8000B8EEE76A37
:100858009FED610AC0F818C0C2F30D000132C3F35E
:100868000D0305EB800038EE468AC2F30D020B61DA
:10087800C5ED008A2344AE6005EB8205D0ED036A1E
:100888005A1C95ED036AC3F30D03C2F30D0281ED03
:10089800038A36EE666A01EB830301EB82024C6140
:1008A800D3ED067AE8EE866A92ED066A36EE676A56
:1008B800E8EE067AAAEE260ABDEC088BA7EE270A10
:1008C800F8BD464F46493A689FED465A82EA423299
:1008D800D4ED193A9FED446A82EA5242DFED434A69
:1008E80082EA421282EA423080EA504080EA4010AE
:1008F8003860A1FB027CA1FB00714FEADC1CC9092E
:10090800CCEB0C2CC1EB0121A2EB0C02401A07EE38
:10091800902AF8EEE76AC6EE857A06EE900AF8EEB7
:10092800E66A86EE854A06EE903AFBEEEF6A67EED7
:10093800A37A67EEA67AF0EE466AC4ED1B7AE4EE77
:10094800246AC4ED216A1BE7244F25483A68DFED85
:10095800256A82EA4232D4ED194A9FED246A82EA76
:100968005242DFED215A82EA421282EA423181EA9A
:10097800514181EA41113960A0FB027CA0FB017062
:100988004FEADC1CC009CCEB0C2CC0EB0020A2EB1E
:100998000C02091A07EE902AF8EEE77A87EEA67A93
:1009A80007EE901AF8EEE77A87EEA65A07EE903A25
:1009B800FBEEEF7A27EE247A27EE277A84ED1A7A6F
:1009C800E5EE065AC4ED205ACEE600BF300002001C
:1009D80040000200DB0F4940000000001000002426
:1009E8008180808000007F4317B751396F12833AA6
:1009F80070B5044604F14C0504F198062DED048BFE
:100A0800DFED5E8A80ED980A15F006FC284694ED25
:100A1800980A9FED5B8A15F0FFFBB0EE680A204646
:100A280015F082FCB6EE000A20469FED569A15F0A6
:100A3800DBFCB0EE480A204615F01CFDB0EE680A53
:100A4800284615F071FC2846B6EE000A15F0CCFCD5
:100A5800B0EE480A284604F1E40515F00BFD3046CF
:100A680094ED980A15F0D8FB284694ED980A15F0ED
:100A7800D3FBB0EE680A304615F056FC3046B6EEA9
:100A8800000A15F0B1FCB0EE480A304604F5987635
:100A980015F0F0FCB0EE680A284615F045FC28462B
:100AA800B6EE000A15F0A0FCB0EE480A284604F598
:100AB800BE7515F0DFFC304694ED980A15F0ACFBD6
:100AC800284694ED980A15F0A7FBB0EE490A30467F
:100AD80015F02AFCB0EE480A304604F5E47615F025
:100AE80083FCB0EE490A284615F01EFCB0EE480A11
:100AF800284604F5057515F077FC94ED980A3046FC
:100B080015F08AFB94ED980A284615F085FBB0EE9F
:100B1800490A304615F008FCB0EE480A304615F090
:100B280063FCB0EE490A284615F0FEFBB0EE480A11
:100B3800284615F059FC4FF07E5384ED998AC4ED90
:100B48009A8A84ED9B8A84ED9C8A84ED9D8A84ED43
:100B58009E8A84ED9F8A84EDA38A84EDA08A84ED21
:100B6800A48A84EDA18A84EDA58A84EDA28A84ED05
:100B7800A68AC4F89C32BDEC048B70BD00007A4490
:100B88000000000000C05A46B0EEC07A9FEDF06A3F
:100B9800DFEDF06AF0EEE07A90ED9D5A27EE067AE6
:100BA800D0ED9E5A67EE867A9FEDEB6AA5EE267A1F
:100BB800E5EEA67A2DE9F84304468946B4EEC67AEE
:100BC80090462DED0E8BF1EE10FA80ED9D7AF0EE49
:100BD800608AC0ED9E7A40F1648187EE069A9FEDA7
:100BE800DE7AF4EEC77AF1EE10FA29EE099A40F1AE
:100BF800628187EE878A28EE088A04F5987015F0D6
:100C08002FFBB0EE680A04F5BE7015F029FBD4ED91
:100C18006B7A94ED580A04F5E47028EE278A29EED9
:100C2800000A15F01DFB04F50570B0EE480A15F032
:100C380017FBB7EE005AF3EE007A94ED997A94ED2B
:100C48009F6AF0EE045AB0EE45AAD4EDA36A94ED7B
:100C5800A0CAB7EE084AD4EDA1BAB6EE008AA7EE4C
:100C680027AA94EDA4BAB0EE467A94ED7E9AF0EEF7
:100C7800667AD4EDA5AA7BEEC63AD4ED918AACEE9D
:100C8800657A94F8A132EBEE657A2AEE099A012B7F
:100C98007CEE6B5AF0EE004A39EE466A65EE845AED
:100CA8006AEE288AABEEA47AE6EE085A3BEE6A6A48
:100CB80038EEE63AEAEEA47A26EE046A69EE08DA35
:100CC80068EE889AA3EE086A37EE6D7A77EEE97ACD
:100CD8007AEEE66AA5EE887AB0EE4CDAE6EE087AA5
:100CE800F0EE4BCA27EE087A67EE887AA3EE887A88
:100CF800E6EE887AA7EE08DAE7EE88CA00F0F28115
:100D0800022B00F0DB80002B00F04481DFED9C7AA1
:100D1800DFED989A2DEE277A69EE29DA6CEEA77A3C
:100D280068EEA99A94ED9A0A204684ED9FCA77EE58
:100D38002DDAC4EDA0BA77EEA99A84EDA19A04F150
:100D48004C0584EDA3BA04F19807C4EDA4AA04F1F4
:100D5800E406C4EDA58A15F0E7FA94ED9B0A20464F
:100D680015F042FB94ED9C0A204615F083FBD4ED68
:100D7800A77A94ED9A0A284620EE270A15F0D4FAA5
:100D880094ED9B0A284615F02FFB94ED9C0A284603
:100D980015F070FB94ED9A0A384615F0C5FA94EDF3
:100DA8009B0A384615F020FB94ED9C0A384615F04E
:100DB80061FBD4EDA77A94ED9A0A304620EE270A13
:100DC80015F0B2FA94ED9B0A304615F00DFB94ED40
:100DD8009C0A304615F04EFBB0EE6D0A204615F021
:100DE8003FFAB0EE690A284615F03AFA94F8A032AC
:100DF800002B40F0C78094ED0D0A94ED208A384608
:100E080015F02EFAB0EE480A304615F029FA94F893
:100E1800A032002B40F0938094ED338A94ED469AEB
:100E2800B5EE40AAF1EE10FA00F17D83F1EECA7A30
:100E3800B7EE007AC7EE278A28EE280A16F0D2FB0A
:100E4800B0EE408A29EE280A16F0CCFBB4EE488AA8
:100E5800F1EE10FA14D6F0EEC87A9FED407AF4EE6F
:100E6800C77AF1EE10FA0BDCB4EE400AF1EE10FA94
:100E780006D6F0EEC07AF4EE477AF1EE10FA08DD05
:100E880094ED980A2046FFF7B3FD9FED350AB0EEC2
:100E9800408A89ED008A88ED000ABDEC0E8BBDE81A
:100EA800F8839FED2D7AB7EE009AF4EEC77AF1EE4B
:100EB80010FA3FF59EAEB7EE008A9EE6F1EE047A90
:100EC800B4EEE7DAF1EE10FA40F33781DFED257A78
:100ED800B0EE007A37EE677A9FED286ADFED286A70
:100EE80027EE067A27EE267AF1EE047AF4EEE7CAC0
:100EF800F1EE10FA40F3C281DFED1B7AF1EE046ADD
:100F0800B4EEE69AF1EE10FA40F36981DFED17DAF4
:100F1800F1EE046AF4EEE68AF1EE10FA40F3FA8193
:100F2800DFED106AF0EE009A79EEE69ADFED135ADB
:100F38009FED106A69EEA59A69EE869AF2E6012B92
:100F480000F0488194ED328A94ED459A68E700BF35
:100F58000AD7233CA4707D3F6F12033BFFFF7F7FBE
:100F68000000000001004942F72858C1B91EA2C17B
:100F78009A99593F9A99193F9A99993F3333333F30
:100F8800CDCCCC3E012B00F0208194ED0C0A94EDE1
:100F98001F8A34E7B4EEC4DAF1EE10FA00F31281D6
:100FA800FFEE087AB4EEE7DAF1EE10FA00F16582A6
:100FB800B5EEC0DAF1EE4D7AB0EE4DEAF1EE10FA88
:100FC8002DEE4D0ACCBF1FED138A20EE080AA7EEBE
:100FD80088EA15F0B3FE2EEE007AADEE087AB0EE90
:100FE80047EAF7EE087AF4EEE7CAF1EE10FA00F3F2
:100FF8001E82FFEE087AF4EEE7CAF1EE10FA00F16D
:101008003982F5EEC0CAB1EE6C7A2CEEEC0AF1EE3C
:1010180010FA40F35B821FED27DAB0EE6C8AA7EE78
:101028000D8A15F08BFE68EE007AECEE8D7AB0EE44
:10103800678AF7EE087AB4EEE79AF1EE10FA00F351
:10104800F381FFEE087AB4EEE79AF1EE10FA00F1B8
:101058000182B5EEC09AF1EE497A29EE490AF1EE1D
:1010680010FA40F34F82F0EE49DA5FED3CCAE7EE42
:10107800ACDA15F063FE6DEE80DAE9EE2CDAF7EE05
:10108800087AF4EEE78AF1EE10FA00F3C081FFEE79
:10109800087AF4EEE78AF1EE10FA00F1DE81F5EE57
:1010A800C08AF1EE687A28EEE80AF1EE10FA40F309
:1010B8001282F0EE689A5FED4FCAE7EEAC9A15F02F
:1010C8003DFE5FED517A5FED556A2EEE277A6DEEA3
:1010D800A6DA68EE277A69EE809AE8EEAC9A69EEAD
:1010E800A69A1FE6F0EE454A1FED5B6AF0EE455AF8
:1010F8005FED606AB0EE457AEDEE0D4AECEEAC5A63
:10110800A9EE097AA8EEA85AF1EEE47AB1EEE54A1A
:10111800F1EEC74AF1EEC55A8DEE277ACCEE847A05
:10112800C9EE24DAC8EEA59A27EE067A67EE867A23
:101138006DEEA6DA69EEA69AF4E5F9EE047AB4EE55
:10114800E7DAF1EE10FA00F18281B4EEC5DAF1EED9
:1011580010FA00F3AB81FFEE007AB4EEE7DAF1EEB5
:1011680010FA00F19E81B7EE087AF7EE007A2DEEBC
:1011780007DAB4EEE7DAF1EE10FA40F381813DEEDA
:1011880067DA1FED837A6DEE0D6AEDEE667A67EE2B
:10119800877AB7EE007AF4EEC77AF1EE10FA3FF7E5
:1011A80097AEBFEE007AF4EEC77AF1EE10FA00F1CE
:1011B800B4815FED8E6A1FED8E7A67EEA67A27EE10
:1011C800877A91E61FED96EA0BE794ED0E0A94ED07
:1011D800218A14E694ED348A94ED479A20E6F9EED4
:1011E800046AB4EEE69AF1EE10FA00F12381F7EE04
:1011F800006AB4EEE69AF1EE10FA04DDB0EE006A89
:1012080036EE496A09E0FFEE006AB4EEE69AF1EEBE
:1012180010FA00F1A981B0EE496AF7EE085AF7EE24
:10122800006A26EE256AB4EEE66AF1EE10FA00F3DB
:10123800E380FFEE005AB4EEE56AF1EE10FA00F131
:1012480086815FEDB36A66EE266AB7EE006AF4EE51
:10125800C66AF1EE10FA00F3AA80BFEE006AF4EE57
:10126800C66AF1EE10FA00F1E7801FEDBC6A5FED87
:10127800BFDA66EE866A66EEADDA49E6F9EE047A1A
:10128800F4EEE7CAF1EE10FA00F1D980F7EE007A31
:10129800F4EEE7CAF1EE10FA04DDF0EE007A77EE2C
:1012A800ECCA07E0FFEE007AF4EEE7CAF1EE10FAB6
:1012B80000F15F81F7EE087AF7EE006A6CEEA7CAD4
:1012C800F4EEE6CAF1EE10FA00F38B80BFEE006A86
:1012D800F4EEC6CAF1EE10FA00F12C815FEDDA6A7D
:1012E8006CEEA66AF7EE007AF4EEE76AF1EE10FA11
:1012F8006ADCFFEE007AF4EEE76AF1EE10FA00F12C
:10130800A0801FEDE26A5FEDE27A66EE866A66EE1D
:10131800A77AF3E5F9EE046AF4EEE68AF1EE10FA3C
:1013280000F19280F7EE006AF4EEE68AF1EE10FA28
:1013380004DDB0EE006A36EE686A09E0FFEE006A86
:10134800F4EEE68AF1EE10FA00F1A680B0EE686AD3
:10135800F7EE085AF7EE006A26EE256AB4EEE66A5A
:10136800F1EE10FA40F30A8136EE666ADFED905A24
:1013780026EE065AE6EE456A66EEA56AB7EE006AFC
:10138800F4EEC66AF1EE10FA3FF7CCADBFEE006A94
:10139800F4EEC66AF1EE10FA00F1C2809FED856A9C
:1013A800DFED859A66EE866A66EEA99ABAE4F0EEF3
:1013B80000DA7DEEE6DADFED7F5A9FED7F6A6DEEAB
:1013C800A5DA6DEE86DAA3E5F0EE007A77EEE67A36
:1013D800DFED785A9FED796A67EEA57A67EE867A2F
:1013E8008CE57CEEE6CADFED727A2CEEEC6AECEE68
:1013F800866A66EEA76A75E736EE666ADFED6C5AAE
:1014080026EE065AE6EE456A66EEA56A1DE7DFEDAA
:101418006B7ADFED696A2EEE277ADFED699A6DEE59
:10142800A6DA68EE277A7DE4DFED66DA27E69FED37
:10143800658AFEE5DFED646AF8EE00DAB9E7DFED0C
:10144800626AF8EE007AC1E7DFED609A6AE49FED20
:10145800607A49E5DFED5FDA11E6DFED587ADFED16
:10146800566A2EEE277ADFED5C9A6DEEA6DA68EE04
:10147800277A57E49FED578ADBE59FED56EAB0E5FA
:10148800BFEE007AB4EEC7DAF1EE10FA11D4DFED50
:10149800487A6DEE277A7CE6B8EE006A36EE686A1E
:1014A80056E7F8EE007A37EECDDA5CE634EECDDAC0
:1014B80059E6B1EE4DDADFED3E6A7DEE677A27EE4A
:1014C800A76AA6EE277A67EE267A62E6B6EE00DA13
:1014D80020EE0D0AA1E5F6EE007A20EE270A15F0B7
:1014E8002DFC38EEE96ADFED357ADFED336AE6EE9A
:1014F800009A2EEE277A6DEEA6DA68EE277A69EE64
:10150800A69A0FE4F6EE007A20EE270A15F016FCEC
:1015180079EE6D7AE7EE80DAB1E5B8EE007AD9E4D3
:10152800F8EE009A00E5B0EE4A0A16F039F8F0EE47
:10153800407A7DE4F1EE6CCADFED1D5A7CEEE67A66
:1015480067EEA76AA7EEA66A66EE256ACAE6B1EE56
:10155800466A9FED175A76EE666A26EEA66AE6EEAA
:10156800865A65EE856A70E6B8EE006A36EE496A14
:1015780053E6F8EE007A77EEECCA9BE6FFEE005AE7
:10158800B4EEE56AF1EE10FA04D4DFED096A66EE0E
:10159800266AF3E6B1EE466A9FED055A76EE666A6C
:1015A80026EEA66AE6EE865A65EE856AE6E600BF8E
:1015B8009A99993F3333333F9A99193FCDCCCC3E12
:1015C8005D8F023F9A99593F010049C2B91EA24155
:1015D800F72858416666E6BE713D8ABE2DE9F04F90
:1015E80000F52A250446DFF8E083002705F2C456F3
:1015F800A0442DED048B87B086ED000A15F074F930
:10160800DD4B96ED009A04F50026636004F5C023CF
:10161800DA4A0193DA4B22602344DA4A86F8687B77
:1016280083ED0A9ADA6107EE907AB2EE088A0137FA
:10163800B0EE000AF8EEE70AC0EE880A15F0F0FBF3
:101648000C2FA8EC010AEED1019B4FF48032DFED9C
:10165800CE8A002103F64438CC4BDFF870934FF064
:10166800010B08F5003718194FF0000AA144C7ED1F
:10167800148A16F075F9C64B9FEDC60A234440E953
:1016880002AB484687ED0D9AC7ED0F8A029314F016
:1016980029FDC14851464FF48032C7ED158A2044D0
:1016A80016F05EF9BD4A029B22449FEDBA0AC2E9D0
:1016B80001ABBB4A87ED119A13441A46B94B104641
:1016C800FB64029214F00EFD06F6A433B64AFFEE50
:1016D800007A86F868BBD3ED006A48469FEDB36A86
:1016E800B0EEE67AF4EEE86AC7EE085ABCEEC77ABE
:1016F800F1EE10FA8DED037A9DF80C30A2FB03127F
:101708004FEAD20202EB4202BCEEE57AA3EB820377
:1017180048F2220252FA83F38DED047A4FF48042A4
:1017280008EB83089DF810305B44D8ED005AC6F8E2
:10173800642B07EE103ACCBF5B465346C7ED186AD8
:10174800B8EEC77A86F8703BE5EE877A97ED0A7AA5
:1017580067EE877A67EE867AF4EEE87AF1EE10FAA9
:1017680054BFB0EE670AB0EE680A87ED070A14F0B6
:10177800B9FC97ED070A029814F0B4FC96F8683B98
:101788000BB186F868AB019B4FF00008884A00202F
:10179800DFF83CA204F520271A4405F2C45379491E
:1017A800A24493ED009A834B5066334487F8208C0B
:1017B800D96183ED0A9A07EE908AB2EE088A08F199
:1017C8000108B0EE000AF8EEE70AC0EE880A15F044
:1017D80027FBB8F10C0FAAEC010AECD106F6FC3392
:1017E800DFED698A74484FF4803203F50038002130
:1017F80020440393C8ED148A16F0B2F86F4B002109
:10180800DFF8D0B1E2180120E150043BA344506056
:1018180023449FED600A584688ED0D9AC8ED0F8A5B
:10182800049314F05FFC66484FF480320021C8ED41
:10183800158A2044DFF868A116F092F8614A049BE3
:10184800002101209FED530A9A44A31843F8041C71
:10185800544BA0505046C8F84C3088ED119A14F0FB
:1018680041FC07F65C434FF001014F4AD3ED006A93
:10187800FFEE007A87F8201C5846B0EEE67A9FED16
:101888004B6AF4EEE86AC7EE085ABCEEC77AF1EE86
:1018980010FA8DED047A9DF81030A2FB03124FEA7E
:1018A800D20202EB4202BCEEE57AA3EB820348F2D5
:1018B800220252FA83F3039A8DED057A02EB830331
:1018C8004FF48042D3ED005A9DF81430C7F81C2C11
:1018D80003F10103C8ED186A07EE103ACCBF0123E3
:1018E8000023B8EEC77A87F8283CE5EE877A98EDAA
:1018F8000A7A67EE877A67EE867AF4EEE87AF1EE8E
:1019080010FA54BFB0EE670AB0EE680A88ED070A0D
:1019180014F0E8FB98ED070A504614F0E3FB97F83B
:10192800203C1BB14FF0000387F8203C019AF2EEEF
:10193800087A1F4B1344002293ED187A1D4BB4EE1E
:10194800677A3344F1EE10FA5A6640F09A8196F8B5
:10195800683B002B40F09581164BF2EE087A334431
:1019680093ED187AB4EE677AF1EE10FA34D197F85D
:10197800203C002B66D02FE000C05A459A99593F69
:10198800440B08000000A04000000000500B0600B7
:10199800440B0600000048425C0B0700500B070090
:1019A80040000200DB0F4940ABAAAAAA0000803819
:1019B800440B0200FC0B0200080C0800000C080095
:1019C800140C0900100C0900CC0B0800740B08005B
:1019D800840C0A002C0C0A00DFF83C83F0EE006A45
:1019E800FFEE007AD7F81C3CB0449FEDC30A584676
:1019F80098ED226A98ED0A7AE6EE267A67EE877AFB
:101A080007EE103ABD4BB8EE477AC8F860300123AC
:101A1800C7EE876A87F8283CF4EEC06AF1EE10FA40
:101A280058BFB0EE660A88ED070A14F05BFB98ED24
:101A3800070A504614F056FB97F8203C13B10023D0
:101A480087F8203CDFF8D48205F2C4569FEDAA8AB5
:101A5800A04496ED000ADFEDAA8A404614F0DCFBAC
:101A680040469FEDA80A14F05FFC4046DFF8B082BC
:101A7800B0EE480A14F0B8FC96ED000AA0444046BF
:101A880014F0CAFB40469FED9F0A14F04DFC4046F7
:101A9800DFF89082B0EE480A14F0A6FC96ED000A32
:101AA800A044404614F0B8FB4046B3EE040A14F0D4
:101AB8003BFC4046DFF87082B0EE480A14F094FC14
:101AC80096ED000AA044404614F0A6FB4046B3EE4B
:101AD800040A14F029FC4046DFF85082B0EE480AA8
:101AE80014F082FC96ED000AA044404614F094FBE2
:101AF80040469FED850A14F017FC4046DFF8308217
:101B0800B0EE480A14F070FC96ED000AA044404676
:101B180014F082FB40469FED7C0A14F005FC404619
:101B2800DFF81082B0EE480A14F05EFC96ED000A69
:101B3800A044404614F070FBB0EE680A404614F02A
:101B4800F3FB4046DFF8F081B0EE480A14F04CFC95
:101B580096ED000AA044404614F05EFBB0EE680A19
:101B6800404614F0E1FB4046DFF8D081B0EE480A69
:101B780014F03AFC96ED000AA044404614F04CFBE1
:101B8800B0EE680A404614F0CFFB4046DFF8B0815B
:101B9800B0EE480A14F028FC96ED000AA04440462E
:101BA80014F03AFBB0EE680A404614F0BDFBB0EE04
:101BB800480A40464FF0000814F016FC53484FF40A
:101BC80096420021204415F0CBFE514841464FF47F
:101BD80096422044C7F8B08F15F0C2FED6ED007AC1
:101BE8009FED4C7A41F2BF2204F5252407F6AC7329
:101BF80067EE877A04F6B820C4F8BC8ABDEEE77AA7
:101C080017EE101AF8EEC76A914277EEE67A28BF07
:101C180011460A46C3ED007AC7F8B41F4FF07C514D
:101C2800C0ED007A05F5B960C4F8C02A05F2CC52B7
:101C380080ED008A05F5BB60116005F5BA6105F213
:101C4800D4522E4B81ED008A05F2DC5182ED008AD8
:101C580005F5BC6280ED008A05F2E45081ED008A4A
:101C680005F5BD61C2ED008A05F2EC5205F5BE65C9
:101C780003600B6013602B6007B0BDEC048BBDE8FC
:101C8800F08FDFF8C080F0EE006A019BFFEE007A6B
:101C98009FED190A4846434493ED226A984693ED0E
:101CA8000A7AE6EE267AD6F8643B67EE877A07EE7C
:101CB800103A124BB8EE477AC8F860300123C7EEE5
:101CC800876A86F8703BF4EEC06AF1EE10FA58BFE6
:101CD800B0EE660A88ED070A14F004FA98ED070AD0
:101CE800029814F0FFF996F8683B002B3FF434AEE5
:101CF800002386F8683B2FE6000000000000404102
:101D080000007A4300401C4600001643B80F0A0042
:101D1800C45A0A000AD7233DFC0B0200B40C0A007F
:101D2800000D0A004C0D0A00980D0A00E40D0A0087
:101D3800300E0A007C0E0A00C80E0A00140F0A00B2
:101D4800600F0A00440B02002DE9F04F0446E948F1
:101D580041F2BF2741F2C129204404F5202504F5AA
:101D680025282DED068B8DB0B0EE608AF0EE408A06
:101D7800CDE9031214F074FADF48B0EE480A2044A3
:101D880014F06EFA05F6C863DC4893ED0D9A05F673
:101D98007C63204493ED0D0A14F062FAD848B0EE43
:101DA800490A204414F05CFA05F61471DFEDD56A8F
:101DB80005F6AC7ED1ED0D7A05F57662D5F8B03F23
:101DC8004FF4965067EEA67A92ED0D7ADE190EEB77
:101DD800830308F6B82227EE267AC3ED037A41F288
:101DE800C22CC94BB6EE003A9FEDC86AA3FB063178
:101DF8000292490A00FB116104F52A2606F2C4532F
:101E0800C5F8B01FD3ED007AD8F8BC3A67EE867AE9
:101E180003EB070A02EB830383ED037ABDEEE77A4F
:101E2800B94BA3FB0AB35B0A00FB13A3C8F8BC3A7F
:101E380017EE108AB8EEC77A4144434401EB000A12
:101E480003EB090201EB090801EB0C0B01EB070995
:101E5800DF19AD499C4405970344A1FB0A7177EE4D
:101E6800C77A490A00FB11AAA749A1FB08710EEB22
:101E78008A0A490ADAED035A00FB1188A249A1FB34
:101E880009710EEB8808490AD8ED033A00FB11994D
:101E98009D4975EEE34AA1FB0371029F0EEB890988
:101EA800490AF0EE646A99ED037A00FB1133DFF812
:101EB8008C9273EEC73A07EB8303A14493ED036A50
:101EC800E3EE836A904BA3FB02135B0A74EEA64A07
:101ED80000FB1323059A07EB830393ED034A8A4B10
:101EE80036EE445AA3FB02135B0A00FB1323864A0F
:101EF80007EB830393ED037AA2FB0B13A2FB0C12EF
:101F080008A95B0A34EE474AB0EE457A520A00FB4C
:101F180013BB06F5B96300FB12CC09AAA4EE037A39
:101F28000EEB8B0E07EB8C0C20469EED032A04F576
:101F38000027DCED032A32EE652A72EEC62A35EE5A
:101F4800075AE2EE034AA2EE835A76EEA46A37EE07
:101F5800057AD7EEA46A95EE277A67EEA66A27EE89
:101F6800277AE3EE836AA4EE037AE7EEA65AA7EE91
:101F7800276AD3ED007A06F5BA6393ED007A06F284
:101F8800D453E7EE275A93ED007A07ABA7EE876A9A
:101F9800009306ABCDED085A8DED096A14F070FD7B
:101FA8005B489DED060A204414F05AF905F6E453FF
:101FB80058485B6B9DED070A20440A9314F050F9CA
:101FC80006F2EC5206F2E4539FED536A05F563619D
:101FD80092ED007AD3ED007A06F5BE63496B77EE91
:101FE800C77A0B91A7EE867A82ED007A06F5BD6274
:101FF800D3ED007AD2ED006A04F5C02276EEE76AE6
:10200800E6EE867AC3ED007A444B2344D3ED186A92
:10201800B4EE667AF1EE10FA40F0698197F8683B01
:10202800002B40F064813E4BDFF814813B44A04410
:1020380093ED187AB4EE677AF1EE10FA40F0F18079
:1020480095F8203C002B40F0EC8048460AA9FEF7A2
:102058006BFB0BA9F0EE409A4046FEF765FB314852
:10206800B0EE409A2044B0EE690A14F0F9F82E4810
:1020780005F6B443B0EE490A204493ED0C9A14F0E7
:10208800EFF82A4805F55063B0EE490A204493ED6D
:102098000C9A14F0E5F805F64C532548B0EE490AB9
:1020A800D3ED0D9A05F69855204414F0D9F8B0EE02
:1020B800E97ADFED205A06F5BB6295ED0D9A06F236
:1020C800DC5327EE257AD2ED004A9FED1B6AF0EE2D
:1020D800C97A93ED005AA4EE867ADFED1A6A67EEA4
:1020E800A57AE5EE067AB4EEE67A82ED007AF1EEAC
:1020F80010FA2FE07C0E0A00C80E0A00140F0A001E
:10210800600F0A00CDCC4C3FB5814E1B0AD7233D4A
:10211800E40D0A00300E0A006F12833A440B0800DF
:10212800FC0B0200B40C0A00000D0A004C0D0A005A
:10213800980D0A000AD7233CA4707D3F440B060083
:10214800FC0B0800CDCCCC3EC3F5283FCDCC8C3F52
:102158006666663FC3ED007A0BDD37EE667A5FEDA3
:10216800065AB0EE666AA7EE256A86EE867A69EEAA
:10217800879A1FED0C7AF4EEC77AF1EE10FA0BDDB0
:1021880077EEC77A1FED106AF0EE476AE7EE866AC7
:10219800C7EE267A29EE279A1FED14AA29EE8A0A95
:1021A80015F020FAF0EE407A29EE0A0AB0EE679AA6
:1021B80015F018FA1FED1A7A06F5BA6206F2D4532A
:1021C80006F2CC5669EE077A20EE077A9DED060AEC
:1021D800C2ED007A83ED007A15F004FAB0EE409A69
:1021E8009DED070A15F0FEF9F7EE007A96ED007AF4
:1021F800039B77EEC76A29EE079AA6EEA89A83EDA5
:10220800009A96ED007A049B77EEC77A20EE070ACB
:10221800A7EE880A83ED000A0DB0BDEC068BBDE879
:10222800F08FF0EEE76A694AF2EE085A07F6FC37D3
:10223800F5EEC07A9FED660ABFEE007A654886EE35
:10224800A56A4044FCEEE66AF1EE10FACDED026AAA
:102258009DF80830A2FB03124FEAD20202EB4202B9
:10226800FCEEC66AA3EB820348F2220252FA83F319
:10227800CDED056A07EB830307F5003793ED006A98
:102288009DF81430C7ED187A03F10103D7ED0A6AF7
:1022980007EE903AD5F81C3CF8EEE77AA6EE277AD6
:1022A80067EE267A07EE103ACCBF01230023B8EE7A
:1022B800477A85F8283CC7EE876AF4EEC06AF1EEE3
:1022C80010FA58BFB0EE660A87ED070A13F00AFF46
:1022D800414897ED070A404413F004FF95F8203C65
:1022E800002B3FF4B2AE002385F8203CADE6F0EEBB
:1022F800C77A3649F2EE085A02F64432FFEE006A0F
:102308009FED330A02F50038B5EEC07A87EEA56A6C
:10231800FCEEE77AF1EE10FACDED027A9DF808307E
:10232800A1FB03012B484FEAD101484401EB4101CD
:10233800FCEEC67A98ED0A6AA3EB810348F2220103
:1023480051FA83F3CDED057A02EB8303D3ED005AFE
:102358009DF8143088ED187AB0EE667A03F101031F
:1023680007EE903AD7F8643BF8EEE77AA5EEA77A3D
:1023780067EE067A07EE103ACCBF01230023B8EEC9
:10238800477A87F8703BC7EE876AF4EEC06AF1EEC9
:1023980010FA58BFB0EE660A88ED070A13F0A2FEDD
:1023A8000D4898ED070A484413F09CFE97F8683BDF
:1023B8003BB106F5BE63D3ED007A002387F8683B8E
:1023C80031E606F5BE63D3ED007A2CE6ABAAAAAADD
:1023D8000000000030000200400002002DE9F04F2C
:1023E80000F58E140546F04804F24C4305F5C02864
:1023F8002844EE4F05F53E262DED088B8BB0B0EE48
:10240800608AD3ED009AF0EE408ACDE9031214F009
:102418004BF8D4F86424E64943F23903BFEE007A56
:102428009FEDE46A01FB0233F0EE006AE248C4F86B
:1024380064341B0C284407EE903AF8EEE77AA7EECE
:10244800867AA7EE260AB0EE409A14F02DF804F525
:102458008B63B0EE087A9FEDD96AF6EE005AD3ED99
:10246800007AD8F8483B77EE896ADFF880C3E9EE4E
:10247800867AD34AD348E0EE076A77EE897ABDEECA
:10248800E66AE0EE077A16EE101AB8EEC65A194454
:1024980076EEC56A01EB0C0A01EB070E01EB0009A9
:1024A800BDEEE77AA2FB0AB3DB0AB8EEC75A0CFB0B
:1024B80013AAA2FB0EB377EEC57ADB0A0CFB13E373
:1024C8000593A2FB09E317EE10EADB0A0CFB13994C
:1024D800D6F854379E440EEB000B774473460598A4
:1024E80008F6443E0EEB8A0A0EEB80000EEB8909D3
:1024F8009AED039A90ED035A99ED037AA2FB07A986
:10250800B14839EE456A4FEAD92935EE475A0144B0
:10251800184463440CFB1979B0EE467AA2FB03A772
:10252800FF0AA5EE257A0CFB1733A2FB0BA7FF0ABF
:1025380036EE076A0CFB17B7A2FB01BAA2FB00B282
:102548004FEADA2AD20A0CFB1A110CFB12000EEB26
:10255800810E06F5EA61DEED034A01EB830301EB28
:10256800890974EEC94AD3ED039A01EB870701EB99
:102578008001A4EEA56A37EE067A96EE867A99ED82
:10258800036ADFF8709209EB050026EE877AA5EE5C
:10259800257A91ED035A35EE695AA6EE879A97ED9A
:1025A800037A79EEC66A894F36EE476AB0EE667AE4
:1025B800B0EE490AA6EE257A76EE876AE5EE256A38
:1025C80037EE267A97EEA67A27EE877AA6EE257A50
:1025D800E7EE879A13F044FE94EDE30A781913F0B6
:1025E8003FFE09EB0500D4EDF7AAB0EE690A13F037
:1025F80037FE94EDE30A781913F032FE94EDF7AA4A
:10260800B0EEEA7ADFED725AF0EECA7A04F25C4371
:102618009FED706A27EE257ADFED6F6A67EEA57A7F
:10262800D3ED005AA5EE867A83ED007A04F58C6323
:10263800B4EEE67AD3ED005AE5EE867AF1EE10FABA
:10264800C3ED007A0BDD37EE667ADFED645AB0EE43
:10265800666AA7EE256A86EE867A6AEE87AA9FEDF5
:102668005E7AF4EEC77AF1EE10FA0BDD77EEC77AF0
:102678009FED5A6AF0EE476AE7EE866AC7EE267A59
:102688002AEE27AADFED567A6AEEA7AAF5EEC0AAC7
:10269800F1EE10FA40F3B4809FED520A2AEE800A58
:1026A80014F0A0FFB0EE40BADFED4D7A2AEE27AA6B
:1026B800B5EEC0AAF1EE10FA40F3AD809FED490ADD
:1026C8002AEE000A14F08EFFF0EE40AADFED4ABAB7
:1026D80009AF2BEE2B0A14F085FFB0EE40AA2AEEC4
:1026E800AB0A14F07FFFDFED407A04F58A61F0EE63
:1026F800686A2AEE27AAD8F8482B20EE270AD1EDD7
:10270800007A304B2846E7EE8A6A384DD11808EB34
:102718008202B0EE487A8DED069A02F64C32CDED83
:10272800079A04F25444A7EE807AC2ED016A244A5B
:10273800A2FB01EC4FEADC2C05FB1C11C8F8481B76
:10274800D6F854170B4406EB8101A2FB03C201F52E
:10275800EB61D20A81ED017A009706A905FB1233D5
:1027680007AAC6F8543708AB14F08AF9DFED207AC7
:10277800D4ED006AE9EE278A9DED087AA9EEA78ACA
:10278800039BDDED097AE6EE878AC3ED008A94EDB6
:10279800007A049BA7EE278A83ED008A0BB0BDEC74
:1027A800088BBDE8F08F00BFF4C31100017701006A
:1027B8006D4EC6410000003820C411008FC2753C20
:1027C800F1197605FF76010002770100A8C3110010
:1027D8000AD7233CA4707D3F9A99993EC3F5283FB8
:1027E8006666E63F6666663F9A99593F007701003C
:1027F800CDCC4C3F5CC311009A99993F3333733F5A
:102808001FED030A2AEE800A14F0ECFE5FED057A4C
:1028180020EE27BA48E71FED080A2AEE000A14F04E
:10282800E1FE5FED0A7A60EE27AA4FE72DE9F04F47
:102838002DED088B8BB08246A3488946039201F0A0
:102848002FF9A24BDFF8D4B21A78DBED007A002A10
:1028580000F06881DFEDB26A9FED9D7A77EEE67A47
:1028680067EEA77AF4EEC77ACBED007AF1EE10FAAC
:1028780040F2EB81974B1D780493934CD4ED878AF3
:1028880094ED8F8A002D00F07481012D00F04883AB
:10289800022D00F0E581904BF0EE680A9FED8F0A5B
:1028A8001D6814F0BDFA28EE088ADFED8D6ADFEDA9
:1028B8008D7A9FED8D7AE8EE267A8C4820EE077A9D
:1028C800284485ED117AB0EE670AC5ED157A13F044
:1028D8002BFDDFED877A95ED150A864820EE270A4D
:1028E800284413F021FD94F87830002B40F0E8815B
:1028F800DFED817AD5ED146AB7EE007A77EEA67A25
:10290800F4EEC77AF1EE10FA40F30083F0EE477A5E
:102918007A48C5ED147A03F061FB002800F099822B
:10292800774803F05BFBF7EE007ABFEE007A0028E9
:10293800744847FE877AC5ED137A03F04FFB0028E9
:1029480040F091824FF07C53AB64049B19780229C4
:1029580000F270816C4B03EB8103D3ED009A6B4B53
:1029680003EB810393ED009A039B002B00F06A812F
:10297800B0EE69BA0026F0EE49BAB000DAE90023F1
:10298800029002EB860203EB860392ED000AD3ED78
:10299800000A2BEE000A6BEE200A002900F02382C1
:1029A800012900F03582022900F027824A4B0024D1
:1029B80057481D680023D5ED117A2F1DD5ED136AF0
:1029C80005F1240895ED007A284467EEA67A069367
:1029D800079387EE879A13F067FD05963E46DDED6F
:1029E80006AA47469DED07AAF0EE408A57E038EE62
:1029F800678A06ED018A9FED470AF7EE009A28EEEE
:102A0800000A14F0A1FCF0EE407AF2EE040AB6EEE9
:102A1800007A79EEE77A68EE200AB0EE000A27EE2F
:102A2800878A14F0FDF9F3EE047AD5ED006AB8EC64
:102A3800017A20EE270AC0EE267A9FED360A77EE55
:102A4800877AF4EEE97AF1EE10FAA8BF77EEE97A20
:102A580027EE800A48ED017A14F07EFBF6EE007A44
:102A6800E3079FED2D7AF6EE006A04F1010468EEA3
:102A7800A77A54BF77EE877A77EEC77ABE4236EEEA
:102A8800E77A77EEA67A27EE087A67EE887AA0EEDC
:102A980007AAE0EE27AA8DED07AA00F02381B6EC7D
:102AA800018AF7EE007A39EE088AB4EEE78AF1EE89
:102AB80010FA9CDAB5EEC08AF1EE10FA48BF38EE8B
:102AC800278A06ED018A96E7B80600240404002444
:102AD8006F12833A05040024080400240000C84249
:102AE80000803B46000048430AD7233CCC0B060035
:102AF800CDCC8C3F180C060000000000080900240B
:102B08001C090024300900244C7D0108407D01087F
:102B18009C0B0600DB0FC940CDCC4C3E0C000024BA
:102B2800A69BC43BB7EE007AF4EEC77AF1EE10FA32
:102B38007FF5A0AE5FED066A37EEA60AB5EE400A4D
:102B4800F1EE10FA00F1AA83F1EEC07ACA4BCB4C31
:102B58001D78D4ED878A94ED8F8A0493F4EE477A32
:102B6800F1EE10FA77FE277ACBED007A002D7FF48C
:102B78008CAE94F87830002B40F0AB80DFEDC07A53
:102B8800C04CB7EE007AC04894ED996ADFEDBC6A94
:102B980077EE867AC7FEA67AC7FEC77AC4ED997A19
:102BA80003F01CFA002840F09981B84803F016FA9F
:102BB800002840F07E82012384F8A0320125DFED51
:102BC800B40AB2EE040A84F8A152C8EEA00A14F0BE
:102BD80027F994ED9B7ADFEDAF5AD4ED9A6A94ED1C
:102BE8009C6A38EE478AD4ED994AB1EE044ADFED83
:102BF800AA3AB7EE005A049BA8EE257A60EE047A4A
:102C0800197874EEC64AC7FE847AC7FEE37A77EE6F
:102C1800E67A0229A4EEA56A84ED9B7AA7EE255AE6
:102C2800E7EEA56A84ED9C6A84EDA75AC4ED9A6A1A
:102C38007FF690AE039B9FED999ADFED919A002B5A
:102C48007FF496AED9F80010EFE0954A1578002287
:102C5800CBF80020884A0492157000221A700CE6FE
:102C6800904B1D6894F87830002B00F01F82D4ED4B
:102C7800337A9FED887AF8EEE77A67EE877A05F57A
:102C88002A24DFED7F6A9FED887A04F5B9637E48D0
:102C980093ED006A77EE867AC7FEA67AC7FEC77AF2
:102CA800C3ED007A03F09AF9002840F0A381774831
:102CB80003F094F9002840F011827C4A7C4BABE188
:102CC800D4ED337A9FED737AF8EEE77A67EE877A78
:102CD80010E6D4ED337A9FED6F7AF8EEE77A67EE77
:102CE800877A4DE7DFED737A73482AEEA70A059EC7
:102CF8002AEE27AA2844F7EE08AA8DED060A8DEDDC
:102D080007AA13F0ADFA6D489DED070A28449FED18
:102D18006CAA13F0A5FA05F5C02108AB07AA01F6BD
:102D2800CC3001F61841096B006B079109A9069090
:102D380005F15800009106A913F0A2FEB7EE007A3B
:102D4800D5ED147A9DED080A37EE677ADDED066A4F
:102D580027EE800A9DED096A67EE868ADDED077A1F
:102D6800A7EE260AE7EE278A20EE2A0A14F03AFC94
:102D7800B0EE408A28EEAA0A14F034FC20EE0A0AC3
:102D880028EE0A8A4F4BF6EE006A38EE406A9BED51
:102D9800007AF7EE005AD3ED007A38EE000AD9F837
:102DA800001026EE266A029877EEA57AD9F8043044
:102DB8000A180136034467EE867AB0EE676AD0EEE9
:102DC800267AA0EE266A27EE067A82ED007A9BED37
:102DD800007A67EE277AC3ED007A039BB34222D0CC
:102DE800049B1978C9E509AA08A92648FDF7CCFE6D
:102DF8009DED088A9DED090AC4E72A4B09AA08A98E
:102E08001868FEF7A1FF9DED088A9DED090AB9E74C
:102E18002D4B09AA08A91868FFF7E0FA9DED088A62
:102E28009DED090AAEE7B0EE6B9A039CB0EE490A35
:102E38002648224613F08EF9B0EE490A2246D9F800
:102E4800041023480BB0BDEC088BBDE8F04F13F01D
:102E580081B9DFED0B7A0D48C5ED137A03F0BEF8A2
:102E680000283FF46FAD1B4803F0B8F8002800F0C5
:102E7800B880194BAB6468E505040024B806002443
:102E8800000000001404002408090024300900246C
:102E980042F88F3ECDCC4C3D00A08C463333B33F37
:102EA800080000240C040024CDCCCC3E6666DE402D
:102EB8009A99E1409A99193ECC0B0600180C060025
:102EC8006666663F04000024100400240004002401
:102ED800FC03002444090024CDCC4C3EC34803F035
:102EE8007DF880F00106C248F6B2760003F076F865
:102EF800002879D0BF4803F071F8022E4FEA40034A
:102F080084F8A0323FF45BAE022558E6F5EE407A2D
:102F18009FEDB97AF1EE10FA48BFF0EE477AF7E480
:102F2800B64B1D6894F87830002B00F0D480D4EDAF
:102F3800337A9FEDB37AF8EEE77A67EE877A05F58C
:102F48008E14B7EE007ADFEDAC6A04F25443AD4854
:102F580093ED006A77EE867AC7FEA67AC7FEC77A2F
:102F6800C3ED007A03F03AF8002840F0A980A048A1
:102F780003F034F8002840F0D5800123DFEDA27A71
:102F88009FEDA27AA8EEA77A04F58B6204F24C4171
:102F9800DFED9B6A022BD2ED007AD1ED005AB0EE3C
:102FA800676A95EE876AE6EE267AC2ED007A00F047
:102FB800F280012B00F0CA8095489FED960A2844BC
:102FC80013F0B2F994489FED950A284413F0ACF930
:102FD800DFED937A04F58A6468EE277AC4ED007A07
:102FE800B3E4904BAB64B0E40123022E84F8A03222
:102FF8008AD1E4E57D4802F0F1FF80F001067C48C3
:10300800F6B2760002F0EAFF002840F08280022E35
:1030180040F0E080844A854B04F2E45184489FEDF7
:10302800850A0A6004F5BD622844136013F07CF930
:1030380081489FED800A284413F076F97F4BDFED35
:10304800806A04F5BC66DFED7F7A04F2CC546B60CD
:10305800E8EE267A96ED000A9FED7B7A7B482844B5
:1030680077EEC07AA7EE870A86ED000A13F05CF9BE
:10307800774896ED000A284413F056F9754896EDFE
:10308800000A284413F050F9734896ED000A2844C2
:1030980013F04AF99FED717ADFED717A4FF07C53A6
:1030A800E8EE877AC5ED007A23604EE4DFED527AC8
:1030B800E5E5504802F092FF430084F8A0327DE530
:1030C8004A4802F08BFF002872D0494802F086FF78
:1030D80080BB012335E0DFED487A30E7454802F050
:1030E8007DFF604A604B002841D004F2E45150480B
:1030F8009FED5E0A0A6004F5BD622844136013F070
:1031080013F94D489FED590A284413F00DF9584B0F
:1031180095E7384802F062FF28B3022E5DD0554A81
:10312800554BE2E7334802F059FF80F00103DBB268
:103138005B0023E72F4802F051FF80F00103DBB268
:103148005B00B6EE007A38EE877A1DE730489FEDCF
:103158004B0A284413F0E8F82F489FED490A284401
:1031680013F0E2F834E7022E3CD12F4A2F4B04F239
:10317800E4512F489FED430A0A6004F5BD622844D4
:10318800136013F0D1F82C489FED3E0A284413F041
:10319800CBF83D4B53E71E489FED3C0A284413F0FB
:1031A800C3F81D489FED3A0A284413F0BDF80FE70D
:1031B8000F4802F013FF98B10E4802F00FFF80F09D
:1031C8000103DBB25B00DFED337A9FED337AA8EEC3
:1031D800A77AD9E6274A284B1EE7134A134B84E7F8
:1031E8000123F0E7234A244BC1E700BF1C09002450
:1031F80030090024440900240000000010040024C1
:10320800CDCC4C3D08090024CDCCCC3E9A99993EB2
:103218005CC3110000009644A8C311000000C84315
:10322800CDCC8C3FCDCC4C3F33333F41CDCC40410E
:10323800B40C0A0000409C45000D0A0000007A45C5
:103248000000AF43000016430AD7233C7C0E0A0057
:10325800C80E0A00140F0A00600F0A00295C8F3E8E
:103268003333333F6666DE409A99E14000007A4482
:1032780000007A44CDCC40C133333FC100A08C4517
:103288000000C84200606A4600803B4600803B461A
:1032980000004843CDCC4C3ECDCCCC3D14F080F959
:1032A800034B8BED000A1D780493FFF7E6BA00BFC5
:1032B800050400242DE9F84F0021D148D14E0024FF
:1032C800002740F2011B06F58E1506F5C0292DEDE5
:1032D800048B00F0C1FACA4800F0DAFBC84800F0D5
:1032E800D5FBB0EE408AC84805F24C4812F02EFFD4
:1032F800C64812F02BFFB0EE480AC54809F6443913
:10330800FDF776FBC34A0021304614F029FBC24B77
:10331800C24A0021C248B7EE009A1E6005F5856AC8
:1033280088ED008A14F01CFB2146BC4ABD48C9F848
:10333800044014F015FBBC4A06F53E23B0EE480ADB
:103348003046C3F8582703F5EA63C9F808205C60DB
:10335800C9F8007005F582691F6013F0C5FAB34B10
:1033680005F5577098ED000A3360B14BDFEDB18A6F
:10337800736012F051FF05F56A7098ED000A12F0BB
:103388004BFFD8ED007A05F204434FF07C5689EEE6
:10339800277A05F57D70C3ED007A05F58163C5F8D8
:1033A800F863C5EDFF8AB0EE680A83ED007A05F58B
:1033B80080631E6005F20C431F6013F00BFAF0EEF9
:1033C800407A05F57D70B0EE040A85F8F443A5F857
:1033D8001CB4C9ED007A85EDFF0A13F0FBF9D8EDAE
:1033E800007A05F58460944B89EE277A89ED000A06
:1033F800C5F8F83305F5866305F22449CAED008A55
:10340800C3ED007A05F23443C9F80060B0EE680AEB
:1034180083ED007A05F22C431E6005F5876305F2FB
:103428003C461F6013F0D6F9F0EE407A01239FED79
:10343800830A05F5846085F82034A5F848B4C6EDFC
:10344800007A8AED000A13F0C5F905F25C429FED97
:103458007C7AD8ED007A43F23901176005F58C6261
:1034680067EE877A774B176005F58B621846C5F8C3
:103478006414C2ED007A05F254422146724D176079
:10348800724A86ED000A89ED009A14F069FA704ACA
:10349800B0EE480A1060FEF7A1F86E4A21462846A9
:1034A80014F05EFA6C4A2B4621461560A3EC018A9B
:1034B80007EE901A0131FAEEEE7A0829E3EC017A68
:1034C800F6D1664EB0EE480AF7EE008A05F5C0243C
:1034D80030464FF07C5713F007FA56ED167A534BE7
:1034E80004F6A43888EEA77A9FED698AAB6504F5DF
:1034F8003A695B4B9FED4F0AEB6504F6AC335948CC
:10350800C3ED007A04F53B6388ED000AC9F8007042
:1035180083ED007A04F6A8331F6004F6B43383ED14
:10352800008A13F057F90023F0EE407A9FED440A21
:1035380084F89C3B40F2011388ED000A04F6B83881
:103548004848C8ED007AA4F8C43B13F043F946484C
:1035580088ED000AC9F8007012F0F8FD4349444AA2
:10356800444B16ED160A444869642A656B65AF64D6
:10357800C5ED138A12F050FE16ED160A3F4812F0F8
:103588004BFEB0EE480A3C4812F02EFF1C4DB0EE40
:10359800480A3A483A4E12F027FF3A4FDFF8EC80D3
:1035A8003949174800F070FA154800F075FA95F88F
:1035B800802033781AB195F898207F2A6AD0002B9A
:1035C80040F08D803C78002C70D19FED311AB7EE19
:1035D800000A00210A48F0EE410A00F071FA9FED56
:1035E8002C1AB7EE000A0121F0EE410A044800F057
:1035F80067FA034800F06CFA012004F007F9D3E7F2
:10360800B806002458B210C000040024FC030024AB
:103618001404002468C411001004002400DC050010
:10362800A8BD16C0B4991CC0FF7601009A99593FED
:1036380000007A450000C84200002041CDCC4C3E35
:10364800CDCCCC3D640C06C0000000C0F4A50A0037
:103658000C040024640C060008040024580000C070
:1036680000401C469C0B06C0C80B06C0CDCC4C3E87
:103678009A99993E00803B46CC0B06C0180C06C0B0
:103688000404002405040024352800080800002448
:10369800000000001BBB01223C7814443270032C4C
:1036A80002DDC8F8003090E7C8F80040012C2CD0A3
:1036B800022CB7EE001A15D0F0EE410A1FED0C0AE5
:1036C80000211C4800F0FCF9B7EE001A9FED1A0A19
:1036D80001211848F0EE410A00F0F2F989E7D8F81C
:1036E800004070E7F0EE410A0021B0EE410A1148AF
:1036F80000F0E6F9B7EE001A01210E48F0EE410A93
:10370800B0EE410A00F0DCF973E79FED0B1AF7EE13
:10371800000A00210748B0EE410A00F0D1F99FEDF8
:10372800061AF7EE000A2146B0EE410A014800F0F9
:10373800C7F95EE7B8060024000000003E4B0021F0
:103748004FF60B7003F1E80210B56FF0F4145961ED
:1037580019621885596398879964A3F858005966BF
:103768001967A3F88400C3F89010A3F8A000C3F861
:10377800AC10A3F8B400C3E90014C3E9024403F58C
:10378800F874C3E90B11C3E91011C3E91711C3E9B0
:103798002211C3E92911C3E92E11C3F8C010A3F8F7
:1037A800D000C3F8DC10C3E93511843200204FF68D
:1037B8000B7C944242F8600C22F86CCC22F840CC86
:1037C80042F8340C22F814CC42F8080C42E91A00EA
:1037D80042E90F0042E90400E7D1C3F85C02C3F8EC
:1037E8007002C3F88402C3F89802144A1449A3F873
:1037F80050C2A3F864C2A3F878C2A3F88CC2C3E984
:103808009500C3E99A00C3E99F00C3E9A4000A48E8
:1038180013F08EFA094A0B490B4813F089FA074A44
:103828000A490B4813F084FA044A08490948BDE8D4
:10383800104013F07DBA00BFB80600240000002431
:10384800250700082D07000814040024290700088C
:1038580000040024FC0300242DE9F04F05460C4623
:10386800022605F118072DED028BCBB000F03CF9CC
:10387800214628467D4C00F01DFA302128460DF1DE
:10388800200900F03BF9284600F034F92846B0EE4C
:10389800408A00F04FF9764907EE900A754A0B20E6
:1038A80066F30703F8EE677A9FED730A60F30F2358
:1038B8000920C8EE278A9FED718ACDE9041266F3C4
:1038C800070266F3070160F30F220A2060F30F2155
:1038D80040F60240CDE9064069480024C9F80000D6
:1038E8006848099040F20240ADF8280005F17400DC
:1038F80001F020FC0022072362F3070105F1D00044
:1039080063F30F2101F082FCBDF81030224605F563
:103918001470ADF80C30BDF814300399ADF82C30A4
:103928000123009402F04CFA012322460B9905F575
:103938001970009402F044FABDF81230224605F5D9
:103948001E70ADF80C30BDF816300399ADF82C3068
:103958000123009402F034FA012322460B9905F55D
:103968002370009402F02CFA4FF60B7332460BA822
:10397800ADF82C30ADF84030ADF85430ADF86830C3
:10398800ADF88030ADF89430ADF8A830ADF8BC3063
:103998000E94139418941D94239428942D9432947F
:1039A800CDE90C44CDE91144CDE91644CDE91B44D9
:1039B800CDE92144CDE92644CDE92B44CDE9304475
:1039C800ADF8D4300999ADF8FC30ADF81031389421
:1039D80042944794CDE93A34CDE93644CDE93C44A4
:1039E800CDE94044CDE9454401F0B0FC3246BDF88C
:1039F800261020A801F0AAFC32460A9935A805F538
:103A0800F87601F0A3FC0BA904230322384601F041
:103A1800ADFCE1B23846013401F0A8FEF0EE480AE8
:103A28000146B0EE680A30460023012201F02CFB63
:103A3800032C06F12006ECD1012405F1E800DDE9AC
:103A480006120094D9F8003001F0F2FBB9F8023000
:103A5800BDF81E2005F5B670BDF81A10009401F0E7
:103A6800E7FB4BB0BDEC028BBDE8F08F0002030B07
:103A78000101010F0200010E000000006F12033B5C
:103A8800030200010005000600F030B800F032B86B
:103A9800183001F057BE00BF743001F079BB00BF89
:103AA80010B5044600F5F87001F020FB04F5047029
:103AB80001F01CFB04F50C70BDE8104001F016BBCA
:103AC80001EB411100EB8100E83001F0DDBB00BFE4
:103AD80010B50446E83001F0F1FB04F5B670BDE816
:103AE800104001F0EBBB00BF704700BF143001F07D
:103AF80099BA00BF143001F091BA00BF38B500F18F
:103B0800140504462DED028B284601F079FA284663
:103B180001F084FA2846B0EE408A01F06DFAD0ED43
:103B2800007AF8EE677A88EE277ABDEC028B84ED8E
:103B38001B7A38BD08B5143001F05EFA006808BD7C
:103B480010B540F203318EB000244FF60B7340F2EB
:103B58000342ADF80810029909A8ADF81030ADF885
:103B680024300123ADF80C202246009407940C94CD
:103B7800CDE90544CDE90A4402F022F904A801235D
:103B880022460399009402F01BF909A802F026FACC
:103B980010B901200EB010BD04A802F01FFA80F081
:103BA8000100C0B240000EB010BD00BF2DE9F041C9
:103BB80003239AB00125002414934FF60B78394B50
:103BC800064610941193A3F19F631595A3F57D43C1
:103BD800ADF84C80CDE916451293FFF7B1FFA84226
:103BE80007463DD002282BD12F4B2A460094CDF80A
:103BF8004A3040F60133ADF82C80ADF81830234632
:103C080006990E94CDE918450BAD2846CDE90C442C
:103C180002F0D6F82146284602F0ECF910A906F180
:103C2800700003F0C5FB214B0FCB85E80F00326F06
:103C3800294606F1140001F0A7F91AB0BDE8F08191
:103C480040F60132184B06F158001995ADF82C20B2
:103C58000BAD0B991894CDF84A3000F0A3F8DDE7C6
:103C68001023114A06A906908DF828300BAD104B89
:103C7800CDF84A2009940294CDE90730CDE918041B
:103C880002A802F037FB0823029A03A92846ADF8D8
:103C98000C708DF80E40049705930B9400F0C2F851
:103CA800BCE700BF0402040404060403FC7C01080A
:103CB8000704010B2DE9F041384B0446384D40F21A
:103CC8000112012604F104082DED028B82B0456033
:103CD800A36003F58133ADF8042040F2027203F5C6
:103CE800807300202285E36040F606632682A3875E
:103CF800E662266400918DF8060003F037FF05465A
:103D080003F086FD6946074610BB0DB304F1500069
:103D18008DF8066003F0ACFE072D36D104F11405CA
:103D28002046FFF743FF284601F078F92846B0EE11
:103D3800408A01F061F9D0ED007AF8EE677A88EEF2
:103D4800277A84ED1B7A02B0BDEC028BBDE8F081C6
:103D580004F1500003F08CFE072D02D1002FDDD0B6
:103D680004E04146204602F06FFE9FB104F12801AD
:103D7800084601F00BFE04F13C01084601F006FE7E
:103D880004F1120000F068F9C8E74146204602F045
:103D98005BFEC3E7002DE9D0C0E700BF05070506B5
:103DA8000508050930B585B0002504460122ADF89F
:103DB8000C102B460399009502F002F801212046C9
:103DC80002F018F9012003F021FD2946204602F0EF
:103DD80011F9012003F01AFD0121204605B0BDE8C4
:103DE800304002F007B900BF10B5C2F3002384B019
:103DF8000C46017C8DF80D2043EA4402FA24022384
:103E08008DF80C2003AA009402F008FB18B10124D5
:103E1800204604B010BD04460A2003F0F7FC2046F3
:103E280004B010BD034670B5044684B043F8042BB3
:103E3800FA2507C983E80700A1791E23009503AA7C
:103E48001A31ADF80C3020460223C9B2217402F0B1
:103E5800E5FA10B1012004B070BD0A2003F0D6FCC9
:103E68004FF4B85200950223ADF80C20204603AA5F
:103E7800217C02F0D3FA0028ECD10A2003F0C6FC1A
:103E880041F2027200950223ADF80C20204603AAE5
:103E9800217C02F0C3FA0028DCD10A2003F0B6FC2A
:103EA800042200950223ADF80C20204603AA217CA9
:103EB80002F0B4FA0028CDD10A2003F0A7FC0622AC
:103EC80000950223ADF80C20204603AA217C02F0BD
:103ED800A5FA0028BED10A2003F098FC41F2082276
:103EE80000950223ADF80C20204603AA217C02F09D
:103EF80095FA0028AED10A200A2603F087FC00951F
:103F0800022303AA217C2046ADF80C6002F086FA51
:103F180000289FD1304603F079FC23790C220095C4
:103F2800002B217C8DF80C20204614BF62234223ED
:103F38006A448DF80D30022302F070FA002889D106
:103F4800304603F063FCA36800952046E268217CB4
:103F58001343627943EA4213227982F0010243EA69
:103F680082130E228DF80D3002238DF80C2003AA3F
:103F780002F054FA00287FF46DAF304603F046FC97
:103F8800102200950223ADF80C20204603AA217CBC
:103F980002F044FA00287FF45DAF304603F036FCA7
:103FA800122100950223ADF80C1003AA217C2046AB
:103FB80002F034FA00287FF44DAF304603F026FCB7
:103FC80001220921204604B0BDE87040FFF70CBF6C
:103FD80070B586B000240125102602A94FF480523E
:103FE8001C480194CDE90256CDE904540CF034FA8A
:103FF800642003F099FF022302A94FF48052154868
:1040080002930594CDE903650CF026FA042302A96E
:104018004FF480520F480396CDE9043403230293EA
:104028000CF01AFA40F23223042202A9094801933B
:1040380010230495CDE90223019B4FF48052059388
:104048000CF00AFA40F6060102480CF025FA204660
:1040580006B070BD6409002470B51D4B88B00822F5
:104068004FF4006400211B4E1A614FF0020C0392BA
:104078000A225C62202406924022054699600320A9
:10408800196210215E600126C3E905424FF4C0722F
:10409800DE60DA6107229FED0C7BCDE900C20422C5
:1040A800CDE904016946181D029283ED0A7B0CF0E4
:1040B800A9F930B904462846FFF78AFF204608B018
:1040C80070BD304608B070BD001000000000000050
:1040D80060090024404100525E4A0023F0B514688C
:1040E8008FB00A93002C40F0B2805B4B012103266D
:1040F8000C2511600227D3F8D420584842F4805286
:10410800C3F8D420D3F8D42002F480520092009A45
:10411800D3F8E02042F01002C3F8E020D3F8E02002
:1041280002F010020192019AD3F8E02042F0400216
:10413800C3F8E020D3F8E02002F040020292029A8D
:10414800D3F8E02042F00802C3F8E020D3F8E020DA
:1041580002F008020392039AD3F8E02042F4807236
:10416800C3F8E020D3F8E02002F480720492049AA5
:10417800D3F8E02042F08002C3F8E020D3F8E02032
:1041880002F080020592059AD3F8E02042F020025E
:10419800C3F8E020D3F8E02002F020020692069A45
:1041A800D3F8E02042F00402C3F8E0204FF683720F
:1041B800D3F8E0300B9603F004030C950793022321
:1041C800079908A9CDE9082306F08CF848F23713B7
:1041D80008A9234808930C950997CDE90A4606F0E3
:1041E80081F84CF2037308A91E480893CDE90974B5
:1041F800CDE90B6506F076F840F2FF6308A91A4886
:104208000893CDE90974CDE90B6506F06BF84FF614
:104218000C7308A915480893CDE90974CDE90B6515
:1042280006F060F84FF63F0308A911480893CDE956
:104238000974CDE90B6506F055F8202308A90B4849
:1042480009970C950893CDE90A4606F04BF80FB08C
:10425800F0BD00BF5809002400440258001002585D
:1042680000180258000C025800200258001C02587E
:10427800001402582DE9F04F8BB0DFF8588106463C
:104288004E4800AF0D46144603F090F94369D8E94B
:104298000621002A00F0E081002940F09D800222DA
:1042A800D8F804A04FF008097A62BAF1000F00F0BC
:1042B8009D80A200E946012B02F1070222F00702C5
:1042C800ADEB020D6846ADEB020DEB4600F0CB817D
:1042D800022B00F05982002B40F0BA81002C00F02C
:1042E800B7811A46D8ED0C6A9FED357A0146331D21
:1042F80036F922C0083107EE90CA33F922C00232DB
:10430800F8EEE77A944267EE877A67EEA67A41ED8F
:10431800027A07EE90CAF8EEE77A67EE877A67EED8
:10432800A67A41ED017AE3D859462246D0470021C2
:1043380098ED0D6A2B1DDFED236A23489FED237A44
:10434800DFED235ADBED007A024666EE277AF4EEBB
:10435800E67AF1EE10FA0CD9F4EEC77AF1EE10FA1B
:1043680067FE277A67EEA57AFDEEE77A17EE902AC0
:1043780012B2DBED017A45F8212066EE277AF4EED9
:10438800E67AF1EE10FA40F2DB81F4EEC77A0BF12F
:10439800080BF1EE10FA67FE277A67EEA57AFDEEB4
:1043A800E77A17EE902A12B243F821200231A1428F
:1043B800C8D3CD462C37BD46BDE8F08FB0090024E0
:1043C8000000003804FF7FBF0280FFFF04FF7F3F2B
:1043D80000FEFF46980900240422D8F804A04FF0F4
:1043E80010097A62BAF1000F7FF463AF3B62D8F824
:1043F8000030BB61002BDDD0DA48C7F810D003F0DD
:104408003FF97B6AF860022B3B6A00F044826A46F7
:1044180060084946012BA2EBC4029546B860C4F374
:104428005D02EB46ABEBC4008546EE46ADEB090DED
:104438000BEB820968460EEB820CADEB010D0146D1
:10444800C7F820D0F961C0E900B909EB820088609B
:104458000CEB820178617869029101EB820100EB33
:1044680082000391F969CDE900ECC86000F0EE83A1
:10447800022B00F00183002B40F0F581002C00F0A6
:104488004B847A6A022A00F04D841946D8F8242011
:10449800FB68DFEDB55A02EB8302FB697D6102F12F
:1044A800040ED3E902A0331D844636F92100D8ED65
:1044B8000C7A06EE100A33F9210006EE900A32F95A
:1044C8002100B8EEC66A07EE100AF8EEE66A3EF971
:1044D8002100B8EEC77A26EE256A66EEA56A27EEB1
:1044E800257A26EE276A66EEA76A27EE277A07EE70
:1044F800900A48080231F8EEE77A0BEB80058C4207
:1045080085ED006A09EB800567EEA57AC5ED006ABE
:104518000AEB80050CEB800085ED007A98ED0C7AAB
:1045280067EE877AC0ED007ABFD87D69BB69BA6843
:10453800D7E9070198473B6A98ED0D7AD3E900CE91
:104548007B6A022B00F03D84D8F82C300020FA68F2
:10455800DFED8C6A03EB820A3B6A9FED846ADFED2C
:10456800845A0AF10408834ED3E9029B2B1D4208A2
:104578000CEB82019200D1ED007A67EE277AF4EE17
:10458800E67AF1EE10FA40F28481F4EEC67AF1EEA2
:1045980010FA66FE277A67EEA57AFDEEE77A17EE3F
:1045A800901A09B245F820100EEB0201D1ED007AFD
:1045B80067EE277AF4EEE67AF1EE10FA40F26781B8
:1045C800F4EEC67AF1EE10FA66FE277A67EEA57A5F
:1045D800FDEEE77A17EE901A09B243F8201009EBBE
:1045E8000201D1ED007A67EE277AF4EEE67AF1EE71
:1045F80010FA40F24A81F4EEC67AF1EE10FA66FE3D
:10460800277A67EEA57AFDEEE77A17EE901A09B2D7
:104618005A444AF82010D2ED007A67EE277AF4EE71
:10462800E67AF1EE10FA40F22981F4EEC67AF1EE5C
:1046380010FA66FE277A67EEA57AFDEEE77A17EE9E
:10464800902A12B248F82020023084428FD80FE115
:1046580022465946D047ACE600297FF420AE2C37D5
:10466800BD46BDE8F08F002CF2D0D8ED0C6A844628
:104678009FED417A0021331D56F821200CF1080CDA
:1046880082F40002A2F5000207EE902A53F82120D6
:104698000231F8EEE77A82F400028C42A2F50002B9
:1046A80067EE877A67EEA67A4CED027A07EE902AD3
:1046B800F8EEE77A67EE877A67EEA67A4CED017A2C
:1046C800DAD822465946D047002298ED0D6A2B1DAC
:1046D800DFED2C6A29489FED257ADBED007A01464B
:1046E80066EE277AF4EEE67AF1EE10FA0BD9F4EEDC
:1046F800C77AF1EE10FA67FE277AF0EE675AFEEEF7
:10470800E45A15EE901ADBED017A45F8221066EEB0
:10471800277AF4EEE67AF1EE10FA1AD9F4EEC77AAF
:104728000BF1080BF1EE10FA67FE277AFEEEE47A39
:1047380017EE901A43F8221002329442CDD838E688
:1047480043F8210002310BF1080B8C423FF6FAAD19
:104758002FE643F8220002320BF1080B9442BCD832
:1047680027E600BFB40900240000003804FF7F3F9B
:1047780000FEFF460280FFFF000000347E0080FF3D
:104788000000003004FF7FBF002C3FF461AFD8ED7C
:104798000C6A01461FED067A0022331D844656F83E
:1047A8002200083107EE900A53F822000232F8EE90
:1047B800E77A944267EE877A67EEA67A41ED027A45
:1047C80007EE900AF8EEE77A67EE877A67EEA67A40
:1047D80041ED017AE3D8604622465946D047002287
:1047E80098ED0D6A2B1D5FED196A9D489FEDA17A22
:1047F800DBED007A014666EE277AF4EEE67AF1EE12
:1048080010FA0BD9F4EEC77AF1EE10FA67FE277AA0
:10481800F0EE675AFEEEE05A15EE901ADBED017ADB
:1048280045F8221066EE277AF4EEE67AF1EE10FAF1
:1048380011D9F4EEC77A0BF1080BF1EE10FA67FE06
:10484800277AFEEEE07A17EE901A43F82210023229
:104858009442CDD8ADE543F8220002320BF1080BA3
:104868009442C5D8A5E5BA68BB69D7E90701984756
:10487800D7F810D02C37BD46BDE8F08F48F8206037
:10488800023084423FF673AEF2E73146C0E6314665
:10489800A3E6314686E6A00049466208012B00F1EE
:1048A800070020F00700ADEB000DEB46ADEB000D67
:1048B800BA606846ADEB090D0BEB8209EC46C7F808
:1048C8001CD0ADEB010D00EB8201CCE900B9C7F8B3
:1048D80020D0009001917FF4CBAD002C00F01C8219
:1048E80098ED0C6A331DDFED5F6A56F82A1081F4E3
:1048F8000001A1F5000107EE901A53F82A1081F47F
:104908000001B8EEE77AA1F5000127EE267A07EE56
:10491800901A4FEA5A010AF1020AF8EEE77A0BEB0D
:10492800810027EE067A09EB8101544567EEA67AE5
:1049380080ED007A67EE867AC1ED007AD5D8BB693A
:10494800D7E9070198473B6A98ED0D7AD3E900CE7D
:104958007B6A022B00F0D282D8F82C300020FA684B
:10496800DFED436A03EB820A3B6A9FED426A0AF174
:1049780004083D4ED3E9029B2B1D42080CEB820133
:104988009200D1ED007A67EE277AF4EEE67AF1EE3E
:1049980010FA63D9F4EEC67AF1EE10FA66FE277AB9
:1049A800F0EE675AFEEEE45A15EE901A45F820101C
:1049B8000EEB0201D1ED007A67EE277AF4EEE67A83
:1049C800F1EE10FA48D9F4EEC67AF1EE10FA66FE66
:1049D800277AF0EE675AFEEEE45A15EE901A43F87D
:1049E800201009EB0201D1ED007A67EE277AF4EE88
:1049F800E67AF1EE10FA2DD9F4EEC67AF1EE10FA55
:104A080066FE277AF0EE675AFEEEE45A15EE901A23
:104A18005A444AF82010D2ED007A67EE277AF4EE6D
:104A2800E67AF1EE10FA0FD9F4EEC67AF1EE10FA42
:104A380066FE277AFEEEE47A17EE902A48F82020E0
:104A48000230844299D813E748F820600230844243
:104A580093D80DE73146DBE73146C0E73146A5E795
:104A6800007E0080000000347E0080FF00000030DF
:104A780004FF7FBF04FF7F3F002C00F04D817B6A5D
:104A8800022B00F07781D8F82430FA687D6103EBB7
:104A9800820CFB695FED0B5A00220CF1040ED3E97E
:104AA80002A1331D0D4656F82210D8ED0C7A07EEF8
:104AB800101A53F82210B8EEC76A07EE101A5CF8FD
:104AC8002210F8EEC76A07EE101A26EE256A5EF87D
:104AD8002210B8EEC77A66EEA56A26EE276A27EE98
:104AE800257A66EEA76A27EE277A07EE901A51080C
:104AF8000232F8EEE77A0BEB8100944280ED006A0F
:104B080009EB810067EEA57AC0ED006A0AEB810027
:104B180005EB810180ED007A98ED0C7A67EE877AD3
:104B2800C1ED007ABFD87D69BB69BA68D7E90701CA
:104B380098473B6A98ED0D7AD3E900CE7B6A022B41
:104B480000F08881D8F82C300020FA685FED386AC8
:104B580003EB820A3B6A1FED396A0AF10408DF4E4B
:104B6800D3E9029B2B1D42080CEB82019200D1ED88
:104B7800007A67EE277AF4EEE67AF1EE10FA63D956
:104B8800F4EEC67AF1EE10FA66FE277AF0EE675A6E
:104B9800FEEEE05A15EE901A45F820100EEB0201D1
:104BA800D1ED007A67EE277AF4EEE67AF1EE10FAA4
:104BB80048D9F4EEC67AF1EE10FA66FE277AF0EEDE
:104BC800675AFEEEE05A15EE901A43F8201009EBEA
:104BD8000201D1ED007A67EE277AF4EEE67AF1EE7B
:104BE80010FA2DD9F4EEC67AF1EE10FA66FE277A9D
:104BF800F0EE675AFEEEE05A15EE901A5A444AF85B
:104C08002010D2ED007A67EE277AF4EEE67AF1EE1C
:104C180010FA0FD9F4EEC67AF1EE10FA66FE277A8A
:104C2800FEEEE07A17EE902A48F8202002308442FF
:104C380099D81DE648F820600230844293D817E6D8
:104C48003146DBE73146C0E73146A5E7002C63D0A3
:104C5800D8F824305246F9687D6003EB810CDFED0B
:104C6800A05A331D7D690CF1040E56F82210D8EDB8
:104C78000C7A81F40001A1F5000107EE101A53F82F
:104C8800221081F40001B8EEC76AA1F5000126EEF2
:104C9800256A07EE101A5CF8221081F40001F8EE7C
:104CA800C76A26EE276AA1F5000166EEA56A07EE37
:104CB800101A5EF82210B8EEC77A81F4000166EE89
:104CC800A76AA1F5000127EE257A27EE277A07EED5
:104CD800901A51080232F8EEE77A0BEB810A9442F7
:104CE8008AED006A09EB810A67EEA57ACAED006AC7
:104CF80005EB810A00EB81018AED007A98ED0C7AC8
:104D080067EE877AC1ED007AAFD8BB69D7E901525F
:104D1800D7E90701984716E60022BB69D7E90701DA
:104D28009847A5E51A4698ED0C6ADFED6E6A331DC3
:104D380036F9221007EE101A33F9221007EE901AEE
:104D4800B8EEC77A51080232F8EEE77A27EE267AEB
:104D58000BEB8100944209EB810167EEA67A27EEFE
:104D6800067A67EE867A80ED007AC1ED007ADFD8A0
:104D7800FFF7DCBB98ED0C6A0022DFED5B6A331DA0
:104D880056F8221007EE901A53F82210B8EEE77A78
:104D980007EE901A51080232F8EEE77A27EE267AE3
:104DA8000BEB8100944209EB810167EEA67A27EEAE
:104DB800067A67EE867A80ED007AC1ED007ADFD850
:104DC800B2E60021DFED4B6A9FED4B6A2B1DDFED4C
:104DD800475A47484A0806460CEB82089200D8ED25
:104DE800007A67EE277AF4EEE67AF1EE10FA0CD93B
:104DF800F4EEC67AF1EE10FA66FE277A67EEA57A27
:104E0800FDEEE77A17EE906A36B2724445F82160F3
:104E1800D2ED007A67EE277AF4EEE67AF1EE10FA30
:104E280012D9F4EEC67AF1EE10FA66FE277A67EE2A
:104E3800A57AFDEEE77A17EE902A12B243F8212000
:104E480002318C42C6D813E543F8210002318C4266
:104E5800C0D80DE50021DFED276A9FED276A2B1DDD
:104E68001E484A0806460CEB82089200D8ED007AE4
:104E780067EE277AF4EEE67AF1EE10FA0BD9F4EE43
:104E8800C67AF1EE10FA66FE277AF0EE675AFEEE61
:104E9800E05A15EE906A724445F82160D2ED007A26
:104EA80067EE277AF4EEE67AF1EE10FA0FD9F4EE0F
:104EB800C67AF1EE10FA66FE277AFEEEE07A17EE71
:104EC800902A43F8212002318C42CAD8D0E443F812
:104ED800210002318C42C4D8CAE400BF007E0080A1
:104EE80000000034000000380000003000FEFF46DB
:104EF8000280FFFF04FF7FBF04FF7F3F00215FEDBB
:104F0800036A1FED036A2B1D1E484A0806460CEB70
:104F180082089200D8ED007A67EE277AF4EEE67AF6
:104F2800F1EE10FA0BD9F4EEC67AF1EE10FA66FE3D
:104F3800277AF0EE675AFEEEE45A15EE906A72444C
:104F480045F82160D2ED007A67EE277AF4EEE67A2A
:104F5800F1EE10FA0FD9F4EEC67AF1EE10FA66FE09
:104F6800277AFEEEE47A17EE902A43F821200231E0
:104F78008C42CAD87CE443F8210002318C42C4D860
:104F880076E400BF7E0080FF30B5184C85B015462A
:104F9800046004F1080E0FC98EE80F00D4ED047AFE
:104FA800F5EEC07A8DE80F00F1EE10FA1ADDB7EED3
:104FB800006A94ED057A27EE277AC6EE276A84ED13
:104FC8000D7AC4ED0C6A6DB1204640F8185F02F006
:104FD800EDFA074903690020064A2162A262E360EC
:104FE80005B030BD012005B030BD00BF98090024D0
:104FF800002000300000003000680830704700BF13
:10500800B1F5807F03680A4628BF4FF48072B1F576
:10501800807F9A6094BF0020012070470068183094
:1050280002F01CBB30B5046883B00D46E3694BB190
:10503800A3680020E26A616A9B00009004F11C00EA
:1050480002F0B6FAA3680748A26A9B00216A00909A
:1050580004F1180002F0ACFA0020C4E9005003B0D3
:1050680030BD00BF7D420008064B302003214FF0C1
:105078007E52C3E90201002000211A615A61C3E986
:105088000601704798090024F6EE006A9FED166A3B
:1050980020EE207A0160F7EE007A80ED036A80ED59
:1050A800020A27EE267AC7EE876AF4EEE76AF1EE7F
:1050B80010FA08DCF4EEC66AF1EE10FA54BFF0EE0E
:1050C800667AF0EE467A4FF07E514FF0000C027689
:1050D8000022C0ED017AC0F814C0016143768276DF
:1050E800C0ED070A704700BF000000000268037E99
:1050F800128807EE902AFBEEC87A1BB1B7EE007A49
:1051080077EE677AD0ED056A90ED047A77EEE67A65
:10511800437E67EE877A0BB1F1EE677A90ED030A6A
:1051280090ED017A77EEC07AA7EE270A80ED030AA0
:10513800704700BF30B5044687B00025ADF814109D
:10514800ADF81020ADF80C3002F05EFB2A46206066
:10515800059904F12C0025710123009500F030FE1B
:1051680001232A46049904F14000009500F028FE26
:105178009FED060A039904F1080000F0ADF84FF618
:10518800FF73A565A4F8543007B030BD00000000D7
:10519800F8B5044602F038FB0027236827718342DC
:1051A80005D104F10800BDE8F84000F0ABB80126CD
:1051B80094F85450206004F12C00B540267100F09A
:1051C8000DFF6DB2284394F85550B54084F854004B
:1051D80004F1400000F002FF94F854306DB2A76566
:1051E80003F003032843022B40B284F8550000F073
:1051F800030007D0002BD4D10228D2D14FF0FF33BF
:10520800A365CEE70028CCD1A665CAE770B584B0FF
:10521800002504461646ADF80C102B462A4603997D
:10522800009500F0CDFDA582A67504B070BD00BF45
:1052380030B52DED028B85B09FED128A04469DF89E
:105248002850B0EE480AADF80C100399ADF80820C4
:105258002A46ADF804300CF09DFBB0EE480A2A4609
:10526800029904F12C000CF095FBB0EE480A2A468E
:10527800019904F1580005B0BDEC028BBDE830403F
:105288000CF088BB00007A4410B52DED028BF0EECF
:10529800608A0446B0EE418A0CF0A6FB04F12C00AB
:1052A800B0EE680A0CF0A0FBB0EE480A04F1580012
:1052B800BDEC028BBDE810400CF096BB10B504465F
:1052C8000CF0A4FB04F12C000CF0A0FB04F1580036
:1052D800BDE810400CF09ABB10B586B00446ADF896
:1052E800141002F091FA4FF480710022206001231B
:1052F800A18004F10800A1830599009200F060FDE7
:1053080006B010BD10B5044602F07EFA00212268EE
:105318002171824200D110BD0346012204F1080028
:105328002360227100F05AFE627F237F504040EADA
:105338004300C0B27F282077EDD102F065FA07EE6E
:10534800900AF8EE677AC4ED087A10BD10B400230D
:1053580083B00324018080F8503080F85120C0E9E0
:10536800014303B05DF8044B704700BF2DE9F04FCF
:105378000024BE4F8DB0BE4D03708046BD4B16460F
:1053880042608946202221463846C5F88835C5F846
:105398008475CDE90144CDE90344CDE90544CDE95F
:1053A8000744CDE9094412F0DBFA2022214605F230
:1053B8006250C5F85145C5F85545C5F85945C5F871
:1053C8005D4512F0CDFA85F85065D8F8043085F8B7
:1053D8006846002B00F0798105F5AA6A09F1500B9F
:1053E8002646522209EB04012819013612F0F8FA70
:1053F8004FF0000327F8023B1BF804200AF8012F9E
:10540800D8F8043062B14FF00102B34204F15404F9
:1054180085F86826E5D895F85065002201230BE049
:105428009E4204F15404DCD395F8683695F850652B
:10543800002BF3D10122032385F8A125012198F837
:1054480000200027C5F8B8350023C5F8A465002654
:10545800C5F8943585F8A03585F8A835C5F8BC3564
:10546800C5F8C035844BC5F89815C5F88C354FF488
:105478008023C5F890350823C5F89C357F4BC3E9D0
:1054880000679AB1002085F8C415013A0121E3E9C3
:105498000801082A0CD8DFE812F0FB00E400DF005E
:1054A800DA00D500D000CA00C300BC0085F8C425C6
:1054B800734803F051F9034608B1FFBEFEE701A99E
:1054C8006F48019303F0ACFA002840F0A080042351
:1054D80040F2FF720990CDE9072395F85035002B6B
:1054E80049D0684F8146DFF8A4A14FF0070BA7F217
:1054F8002C5494F83D30072B07D8DFE803F0828559
:105508007F79767C3F04CDF818B0A4F1140000F040
:105518004DFB94F83C30042B3ADC022B00F3CE8090
:1055280000F0C98000233B7014F8143C14F8132CC5
:10553800002B40D0022B00F0B080012B05D1012AAE
:1055480000F0C980002A00F0D2800023049304A947
:105558005AF8043B4A48059302F04AFD002840F0F7
:10556800BC8009F1010995F85025013754345FFAD8
:1055780089F39A42BDD80DB0BDE8F08F0623A4F197
:105588001400069300F012FB94F83C30042BC4DDA1
:1055980003233B70A04600264046013600F006FB78
:1055A8003B7808F11408B342F6DC14F8143C14F8FC
:1055B800132C002BBED1062A00F08380072A00F0A6
:1055C8009280022A00F09580032A00F09680002A33
:1055D80000F09180012A00F09280042A00F0918066
:1055E800052A294A08BF1346B0E7042306938CE727
:1055F8000323069389E70523069386E70223069388
:1056080083E70023069380E7012306937DE7FFBE27
:10561800FEE740F2FF304FF4A07143E9020147E78B
:1056280040F2FF104FF4907143E9020140E7FF2078
:105638004FF4807143E902013AE77F20E02143E912
:10564800020135E73F20C02143E9020130E71F206E
:10565800A02143E902012BE70F20802143E9020141
:1056680026E70720602143E9020121E700400030D6
:10567800D00900244040003000200240800F002460
:105688005C0F0024100F00240000B84F587D01085B
:105698000320402143E902010AE7042A13D0052A1E
:1056A80017D0E2B1012A1CD0022A1ED0032A7FF4A7
:1056B8004CAF154B4AE701233B706BE702233B7065
:1056C80068E7124B42E7124B40E7F6B20122032388
:1056D800B2E6104B3AE7104B38E7FFBEFEE70F4B38
:1056E80034E70F4B32E70F4B30E70F4B2EE70F4BEA
:1056F8002CE70F4B2AE70F4B28E70F4B26E70F4BFA
:1057080024E70F4B22E700BF002090360800900CDA
:105718001000C010000180212000F0140004002AAD
:105728000008302E8000501D001060320002B025A5
:105738000040C03A000021430080F03E000052477C
:105748000000844B10B5084C40F2FF724FF0011175
:10575800204603F013F914F83C2C54F8081C204692
:10576800BDE8104002F084BE5C0F0024034B0F29F3
:10577800D3F8840598BF00EB41007047D009002496
:10578800234B02689A4200D07047224A00232248DD
:10579800D2F8D81010B5214C82B041F02001C4F8DD
:1057A800F0050920C4F8F835C4F8F4054FF4806012
:1057B800C2F8D810D2F8D820C4F8FC3502F020027C
:1057C800C4F81036C4F8143601924FF40052019B05
:1057D80094F86836C4F800064FF4006083F00103BB
:1057E800C4F80826C4F8040604F5BE601B02C4F811
:1057F8000C3603F03BFB08B1FFBEFEE704F28C5306
:1058080004F5BE62C4F82836C4F8D82502B010BD25
:10581800002002400044025840000240D009002401
:10582800014804F04BBB00BFC00F0024444B026882
:105838009A4200D070472DE9F047424D95F86836F6
:105848000BB9BDE8F08795F85025002A48D005F532
:10585800AC6605F13C0805F5AA67002413E003F0DF
:1058680001013380A8F1280017F811AC00F0C2FB41
:10587800BAF1010F23D895F85025013408F15408DE
:10588800A3B29A422AD917F8013F0236002BF4D066
:10589800D5F884350021327833F81400D5F88835E6
:1058A80003EB041323F8120033883A7801339BB2D0
:1058B8009A425FFA83F9D2D80B468946D1E7C9F3F1
:1058C8004001A8F1140000F095FBBAF1020FC9F3EA
:1058D8008001D0D0404600F08DFBCCE795F86836C3
:1058E80083F001031849194C00221B02C5F8F01572
:1058F8000921A4F11000C5F80C364FF40063C5F86F
:10590800F4154FF4806163604FF40053C5F8F8252F
:10591800C5F8FC25C5F80016C5F81026C5F81426E4
:10592800A36003F0A3FA08B1FFBEFEE795F850257F
:10593800A4F17400D5F88415BDE8F04702F098BDCD
:1059480000200240D009002440000240D00F00246B
:10595800704700BF0C4B4FF60B71002203F5A8608F
:105968001980DA6099821A6219855A6399879A644C
:10597800C3E90122C3E90622C3E90B22C3E91022C5
:1059880054339842ECD17047D009002484460FC99B
:105998008CE80F009CF800300B2B47D000B59CF822
:1059A80001E091B0BEF10F0F3DD802293FD0032985
:1059B80004D0A1F10101B1FA81F14909DCF808200C
:1059C8000C91012A05D0A2F10202B2FA82F2520920
:1059D8005200DCF80C100D92022906D0032904D0DD
:1059E800A1F10101B1FA81F149090A2B0E910FD8F1
:1059F800624A591E02EB8323CCF81030092900F2C1
:105A0800AE80DFE801F02534435261707F8E9D1629
:105A180000231846CCF8103001230BA903FA0EF323
:105A28000B9304F05FFC11B05DF804FB7047112183
:105A3800C4E7534B5348D3F8E02042F48062C3F8DC
:105A4800E020D3F8E03003F480630A930A9BE3E78D
:105A58004B4B4D48D3F8E02042F00202C3F8E02057
:105A6800D3F8E03003F002030193019BD4E7444BE1
:105A78004648D3F8E02042F00402C3F8E020D3F807
:105A8800E03003F004030293029BC5E73C4B404817
:105A9800D3F8E02042F00802C3F8E020D3F8E03061
:105AA80003F008030393039BB6E7354B3948D3F853
:105AB800E02042F01002C3F8E020D3F8E03003F011
:105AC80010030493049BA7E72D4B3348D3F8E02039
