:020000040800F2
:1000000000000220DD060008D1060008C9760008BD
:10001000D1060008D1060008D10600080000000043
:10002000000000000000000000000000D1060008F1
:10003000D106000800000000D10600084D76000837
:10004000D1060008D1060008D1060008D106000834
:10005000D1060008D1060008D1060008D106000824
:10006000D1060008D1060008D10600083572000844
:1000700041720008C15700084D720008597200080B
:10008000053C01083D620008D1060008D1060008C1
:10009000D1060008D1060008D1060008D1060008E4
:1000A000D1060008D1060008D1060008D1060008D4
:1000B000952D0108A12D0108AD2D010871620008E0
:1000C000D10600087D620008D1060008312601082B
:1000D0003D260108153A0108453A01087D3A010814
:1000E000D1060008D106000800000000D106000873
:1000F000D1060008D1060008D1060008D106000884
:10010000D1060008D1060008B92D010849260108CA
:10011000B53A0108ED3A0108D1060008D1060008F9
:10012000D1060008D10600086D260108A1260108A5
:10013000393C0108D1060008D1060008D1060008A4
:1001400000000000000000000000000000000000AF
:10015000D1060008D1060008D1060008253B010899
:1001600089620008D10600085D76000881760008E3
:10017000D1060008A5760008D1060008D1060008BF
:10018000D1060008D10600085D3B0108953B010837
:100190005526010861260108D1060008D10600088D
:1001A000D1060008D1060008D1060008D1060008D3
:1001B000796E0008D1060008D1060008D1060008B3
:1001C000D1060008D1060008D1060008D1060008B3
:1001D000D1060008D1060008D1060008D1060008A3
:1001E000D1060008D1060008D1060008D106000893
:1001F000D1060008D1060008D1060008D106000883
:10020000D1060008D1060008D1060008D106000872
:10021000D1060008D1060008D1060008D106000862
:10022000D1060008D1060008D10600080000000031
:10023000D1060008D106000800000000D106000821
:10024000D1060008D1060008D1060008D106000832
:10025000D1060008D1060008D1060008D106000822
:10026000D1060008D1060008D1060008D106000812
:10027000D1060008D1060008CD3B010800000000AF
:10028000D1060008D1060008D106000800000000D1
:0802900000000000D106000887
:1002980081F0004102E000BF83F0004330B54FEA2F
:1002A80041044FEA430594EA050F08BF90EA020F9C
:1002B8001FBF54EA000C55EA020C7FEA645C7FEA2F
:1002C800655C00F0E2804FEA5454D4EB5555B8BF52
:1002D8006D420CDD2C4480EA020281EA030382EAC3
:1002E800000083EA010180EA020281EA0303362D55
:1002F80088BF30BD11F0004F4FEA01314FF4801C28
:100308004CEA113102D0404261EB410113F0004F39
:100318004FEA03334CEA133302D0524263EB4303F0
:1003280094EA050F00F0A780A4F10104D5F1200E8E
:100338000DDB02FA0EFC22FA05F2801841F10001E9
:1003480003FA0EF2801843FA05F359410EE0A5F1BD
:1003580020050EF1200E012A03FA0EFC28BF4CF0EE
:10036800020C43FA05F3C01851EBE37101F00045A4
:1003780007D54FF0000EDCF1000C7EEB00006EEBB1
:100388000101B1F5801F1BD3B1F5001F0CD349083B
:100398005FEA30004FEA3C0C04F101044FEA445292
:1003A80012F5800F80F09A80BCF1004F08BF5FEA19
:1003B800500C50F1000041EB045141EA050130BDF9
:1003C8005FEA4C0C404141EB0101013C28BFB1F50B
:1003D800801FE9D291F0000F04BF01460020B1FA56
:1003E80081F308BF2033A3F10B03B3F120020CDA29
:1003F8000C3208DD02F1140CC2F10C0201FA0CF007
:1004080021FA02F10CE002F11402D8BFC2F1200C6B
:1004180001FA02F120FA0CFCDCBF41EA0C01904021
:10042800E41AA2BF01EB0451294330BD6FEA04046A
:100438001F3C1CDA0C340EDC04F11404C4F1200255
:1004480020FA04F001FA02F340EA030021FA04F367
:1004580045EA030130BDC4F10C04C4F1200220FABE
:1004680002F001FA04F340EA0300294630BD21FAFC
:1004780004F0294630BD94F0000F83F4801306BFC2
:1004880081F480110134013D4EE77FEA645C18BFB6
:100498007FEA655C29D094EA050F08BF90EA020F4D
:1004A80005D054EA000C04BF1946104630BD91EA45
:1004B800030F1EBF0021002030BD5FEA545C05D148
:1004C8004000494128BF41F0004130BD14F5800487
:1004D8003CBF01F5801130BD01F0004545F0FE41FB
:1004E80041F470014FF0000030BD7FEA645C1ABF30
:1004F800194610467FEA655C1CBF0B46024650EA67
:10050800013406BF52EA033591EA030F41F4002192
:1005180030BD00BF90F0000F04BF0021704730B518
:100528004FF4806404F132044FF000054FF00001ED
:1005380050E700BF90F0000F04BF0021704730B5AE
:100548004FF4806404F1320410F0004548BF404283
:100558004FF000013EE700BF42004FEAE2014FEAD8
:1005680031014FEA02701FBF12F07F4393F07F4FB3
:1005780081F06051704732F07F4208BF704793F0B6
:100588007F4F04BF41F40021704730B54FF46074C9
:1005980001F0004521F000411CE700BF50EA0102CC
:1005A80008BF704730B54FF000050AE050EA010275
:1005B80008BF704730B511F0004502D5404261EBE5
:1005C80041014FF4806404F132045FEA915C3FF426
:1005D800D8AE4FF003025FEADC0C18BF03325FEAC3
:1005E800DC0C18BF033202EBDC02C2F1200300FA74
:1005F80003FC20FA02F001FA03FE40EA0E0021FA99
:1006080002F11444BDE600BF53B94AB9002908BF36
:1006180000281CBF4FF0FF314FF0FF3000F00CB83E
:10062800ADF1080C6DE904CE17F0B4F9DDF804E07B
:10063800DDE9022304B07047704700BF0348044B4C
:10064800834202D0034B03B118477047DC030024F0
:10065800DC030024000000000548064B1B1AD90FD4
:1006680001EBA301491002D0034B03B118477047AF
:10067800DC030024DC0300240000000010B5064C55
:10068800237843B9FFF7DAFF044B13B10448AFF3FB
:1006980000800123237010BDE00300240000000047
:1006A8003082010808B5054B1BB105490548AFF371
:1006B8000080BDE80840FFF7CFBF00BF0000000082
:1006C800E403002430820108684620F007018D46C3
:1006D800FEE700BF0C4A08B50C4B934204D0D21A6F
:1006E8000B49184617F048F90A4A0B4B934204D0B5
:1006F800D21A0021184617F0FFF807F04FFA17F042
:1007080009F902F0A5FDFEE7DC030024000000243F
:1007180068820108D03D0024E0030024704700BF30
:10072800704700BF704700BFF8B50546A7480E469A
:10073800284405F500342DED088B15F0AFFCA448CE
:10074800F0EE409A284415F0A9FCD4ED1C7AF0EE9E
:1007580040AA236AF4EEE97AF1EE10FA00F3F48085
:10076800D4ED205A94ED1A7AD4ED1D7AF4EEEA7A93
:10077800F1EE10FA00F3A580D4ED216AD4ED1B7ACE
:10078800D4ED1E8A94ED1F8A37EE687A94F82C20EF
:1007980077EEC87AC4ED1C9AC4ED1DAAE7EE258A47
:1007A800A7EEA68AC4ED1E8A84ED1F8A2AB1F7EE49
:1007B800007A77EEE99A77EEEAAA013B9FED85BACF
:1007C80009EE103A29EE8B0AB8EE499A69EE299A91
:1007D80029EE2A9AC4ED169A78EEA98A84ED179A1A
:1007E80038EE098A16F084FCB0EE40AA2AEE8B0A8D
:1007F80084ED14AA16F07CFCFDEEE86AB0EE407AAF
:100808006A6843F6FF73FDEEC87A05EB8201F8EEDD
:10081800E65A84ED157A1A44D6F800C016EE906AA6
:1008280017EE904AC2F30D02C1F80CC09E4205F5BE
:1008380080316A6028BF1E469C42086978EEE58AC6
:1008480028BF1C463244034401EB8000B8EEE76A37
:100858009FED610AC0F818C0C2F30D000132C3F35E
:100868000D0305EB800038EE468AC2F30D020B61DA
:10087800C5ED008A2344AE6005EB8205D0ED036A1E
:100888005A1C95ED036AC3F30D03C2F30D0281ED03
:10089800038A36EE666A01EB830301EB82024C6140
:1008A800D3ED067AE8EE866A92ED066A36EE676A56
:1008B800E8EE067AAAEE260ABDEC088BA7EE270A10
:1008C800F8BD464F46493A689FED465A82EA423299
:1008D800D4ED193A9FED446A82EA5242DFED434A69
:1008E80082EA421282EA423080EA504080EA4010AE
:1008F8003860A1FB027CA1FB00714FEADC1CC9092E
:10090800CCEB0C2CC1EB0121A2EB0C02401A07EE38
:10091800902AF8EEE76AC6EE857A06EE900AF8EEB7
:10092800E66A86EE854A06EE903AFBEEEF6A67EED7
:10093800A37A67EEA67AF0EE466AC4ED1B7AE4EE77
:10094800246AC4ED216A1BE7244F25483A68DFED85
:10095800256A82EA4232D4ED194A9FED246A82EA76
:100968005242DFED215A82EA421282EA423181EA9A
:10097800514181EA41113960A0FB027CA0FB017062
:100988004FEADC1CC009CCEB0C2CC0EB0020A2EB1E
:100998000C02091A07EE902AF8EEE77A87EEA67A93
:1009A80007EE901AF8EEE77A87EEA65A07EE903A25
:1009B800FBEEEF7A27EE247A27EE277A84ED1A7A6F
:1009C800E5EE065AC4ED205ACEE600BF300002001C
:1009D80040000200DB0F4940000000001000002426
:1009E8008180808000007F4317B751396F12833AA6
:1009F80070B5044604F14C0504F198062DED048BFE
:100A0800DFED5C8A80ED980A15F0D2FB284694ED5C
:100A1800980A9FED598A15F0CBFBB0EE680A20467C
:100A280015F04EFCB6EE000A20469FED549A15F0DC
:100A3800A7FCB0EE480A204615F0E8FCB0EE680ABC
:100A4800284615F03DFC2846B6EE000A15F098FC3D
:100A5800B0EE480A284604F1E40515F0D7FC304604
:100A680094ED980A15F0A4FB284694ED980A15F021
:100A78009FFBB0EE680A304615F022FC3046B6EE11
:100A8800000A15F07DFCB0EE480A304604F5987669
:100A980015F0BCFCB0EE680A284615F011FC284693
:100AA800B6EE000A15F06CFCB0EE480A284604F5CC
:100AB800BE7515F0ABFC304694ED980A15F078FB3E
:100AC800284694ED980A15F073FBB0EE490A3046B3
:100AD80015F0F6FBB0EE480A304604F5E47615F05A
:100AE8004FFCB0EE490A284615F0EAFBB0EE480A7A
:100AF800284604F5057515F043FC94ED980A304630
:100B080015F056FB94ED980A284615F051FBB0EE07
:100B1800490A304615F0D4FBB0EE480A304615F0C5
:100B28002FFCB0EE490A284615F0CAFBB0EE480A79
:100B3800284615F025FC84ED998AC4ED9A8A84ED3F
:100B48009B8A84ED9C8A84ED9D8A84ED9E8A84ED3F
:100B58009F8A84EDA38A84EDA08A84EDA48A84ED1B
:100B6800A18A84EDA58A84EDA28A84EDA68ABDECCB
:100B7800048B70BD00007A440000000000C05A4693
:100B8800B0EEC07A9FEDBD6ADFEDBD6AF0EEE07AA7
:100B980090ED9D5A27EE067AD0ED9E5A67EE867A3A
:100BA8009FEDB86AA5EE267AE5EEA67A2DE9F84318
:100BB80004468946B4EEC67A90462DED0E8BF1EECA
:100BC80010FA80ED9D7AF0EE608AC0ED9E7A40F1D1
:100BD800478187EE069A9FEDAB7AF4EEC77AF1EE7D
:100BE80010FA29EE099A40F1458187EE878A28EEA6
:100BF800088A04F5987015F0FFFAB0EE680A04F553
:100C0800BE7015F0F9FAD4ED6B7A94ED580A04F534
:100C1800E47028EE278A29EE000A15F0EDFA04F5AB
:100C28000570B0EE480A15F0E7FAB7EE005AF3EE91
:100C3800007A94ED997A94ED9F6AF0EE045AB0EE3A
:100C480045AAD4EDA36A94EDA0CAB7EE084AD4ED3C
:100C5800A1BAB6EE008AA7EE27AA94EDA4BAB0EE20
:100C6800467AD4ED7E9AF0EE667AD4EDA5AA7BEEAC
:100C7800C63A94ED919AACEE657A94F89D32EBEE13
:100C8800657A6AEE299A012B7CEE6B5AF0EE004ADF
:100C980039EEC66A65EE845A2AEE099AABEEA47A52
:100CA800E6EE085A3BEE6A6A39EE663AEAEEA47A4C
:100CB80026EE046A69EE88DA69EE088AA3EE086A05
:100CC80037EE6D7A77EEE87A7AEEE66AA5EE887AFC
:100CD800F0EE4CCAE6EE087AB0EE4BDA27EE087A68
:100CE80067EE887AA3EE887AE6EE887AE7EE08CA95
:100CF800A7EE88DA00F08781022B00F0D180002B64
:100D080000F0A481DFED638AB0EE698A69EE288A73
:100D1800DFED606AF7EE007A94ED9B6A204628EED4
:100D2800268ADFED596A9FED597A04F14C05E6EE03
:100D3800267A94ED9A0A84EDA59AACEE878A84ED1A
:100D48009FCAEDEE078AC4EDA0BA04F19807C4ED76
:100D5800A19A04F1E40684EDA3BAC4EDA4AAB0EE06
:100D6800679A15F0ADFA94ED9B0A204615F008FB3A
:100D780094ED9C0A204615F049FB94ED9A0A284602
:100D880029EE000A15F09CFA94ED9B0A284615F006
:100D9800F7FA94ED9C0A284615F038FB94ED9A0A68
:100DA800384615F08DFA94ED9B0A384615F0E8FAA6
:100DB80094ED9C0A384615F029FB94ED9A0A3046C2
:100DC80029EE000A15F07CFA94ED9B0A304615F0DE
:100DD800D7FA94ED9C0A304615F018FBB0EE480A95
:100DE800204615F009FAB0EE680A284615F004FA0C
:100DF80094F89C32002B40F0FE8094ED0D0A94ED9F
:100E0800208A384615F0F8F9B0EE480A304615F051
:100E1800F3F994F89C32002B40F0E58094ED339A76
:100E2800D4ED468AB5EE40AAF1EE10FA00F1BA8385
:100E3800F1EECA7AB7EE007A87EE278A29EE080A19
:100E480016F09CFBF0EE407A28EE880AC9ED007A8D
:100E580016F094FB88ED000ABDEC0E8BBDE8F88314
:100E68009FED087AB7EE009AF4EEC77AF1EE10FA21
:100E78003FF5BBAEB7EE008ABBE600BF0AD7233CFE
:100E8800A4707D3F6F12033BCDCC4C3DCDCCCC3E06
:100E98003333333F9A99193F9A99593F9A99993F11
:100EA800F4EEC5CAF1EE10FA40F36F8174EEECCAA5
:100EB8002CEE844AB4EEC54AF1EE10FA40F32A82C9
:100EC80034EEC44A5FED0B7A24EE274AB4EEC54AE5
:100ED800F1EE10FA03DDF0EE007A37EEC44AB7EE11
:100EE800007A5FED15CA64EE2CCAB4EEC7DAF1EEEB
:100EF80010FA40F3C481F0EE006AB7EE086A76EEA5
:100F0800CD7A67EE867AF4EEC77AF1EE10FA40F3FE
:100F1800E08176EEE76A5FED1F7A66EEA77AF4EE77
:100F2800C77AF1EE10FA03DDB0EE007A77EE677A51
:100F3800B7EE007A1FED2ADA27EE8DDAF4EEC79ABB
:100F4800F1EE10FA40F37A81F0EE007AF7EE086AD3
:100F580037EEE98A28EE268AB4EEC78AF1EE10FA4F
:100F680040F30D8277EEC87A1FED348A27EE888A1F
:100F7800B4EEC78AF1EE10FA03DDF0EE007A37EE30
:100F8800C88AF7EE007A1FED3E7A28EE078AB4EE9B
:100F9800E79AF1EE10FA40F33081B0EE007AF7EEFE
:100FA800086A77EE498A68EEA68AF4EEE78AF1EED7
:100FB80010FA40F3C48137EE687A5FED488A67EE2D
:100FC800288AF4EEE78AF1EE10FA03DDF0EE007AF3
:100FD80077EEE88A1FED527A5FED527A68EE878ADB
:100FE80068EEA78A94E6012B00F0028194ED329A0C
:100FF800D4ED458A16E7012B00F0F58094ED0C0A34
:1010080094ED1F8AFDE6B0EE456A5FED5E7AF0EE7C
:10101800456AB0EE457AA9EE096AECEEAC6AADEE27
:101028000D7AA9EEA95AF1EEC65AB1EEE66AF1EECA
:10103800C76AB1EEC57AC9EE258ACCEE86CA8DEEAE
:1010480026DA89EE878A68EEA78A61E6F4EEC4CAD2
:10105800F1EE10FA00F3C480FFEE087AF4EEE7CA66
:10106800F1EE10FA00F1AB81F5EEC0CAF1EE6C7A40
:101078002CEEEC0AF1EE10FA40F30D82B0EE6C8A19
:101088001FED7DEAA7EE8E8A15F024FE28EE008A71
:10109800ACEE8E8AF0EE48CAF7EE087AB4EEE7DADC
:1010A800F1EE10FA00F31281FFEE087AB4EEE7DAF7
:1010B800F1EE10FA00F18C81B5EEC0DAF1EE4D7A5E
:1010C8002DEE4D0AF1EE10FA40F3E0811FED90EAA3
:1010D800B0EE4D8AA7EE8E8A15F0FCFD28EE008A48
:1010E800ADEE0E8AB0EE48DAF7EE087AF4EEE79A3B
:1010F800F1EE10FA00F3E780FFEE087AF4EEE79AD3
:10110800F1EE10FA00F16181F5EEC09AF1EE697A1C
:1011180029EEE90AF1EE10FA40F3AB81B0EE698AE4
:101128005FEDA5DAA7EEAD8A15F0D4FD28EE008AAA
:10113800A9EEAD8AF7EE087AB4EEE79AF1EE10FA66
:1011480000F3BE80FFEE087AB4EEE79AF1EE10FAEB
:1011580000F13881B5EEC09AF1EE497A29EE490AD4
:10116800F1EE10FA40F37681F0EE498A5FEDB8DAD5
:10117800E7EEAD8A15F0AEFD5FEDBA7A68EE808ACB
:10118800E9EE2D8A68EEA78AC2E5FFEE007AF4EE52
:10119800E7CAF1EE10FA00F19F812CEE844AB4EE12
:1011A800C54AF1EE10FA3FF78BAEB4EEE74AF1EE1E
:1011B80010FA40F1B780F8EE007A1FEDC87A77EEA2
:1011C800C47A27EE874AFFEE007AB4EEE74AF1EEDA
:1011D80010FA7FF584AEF8EE007A37EEC44A7EE660
:1011E8005FEDD3CA58E794ED0E0A94ED218A08E61C
:1011F80094ED349AD4ED478A14E6BFEE007AB4EE43
:10120800C79AF1EE10FA00F15581F7EE088A69EEF7
:10121800288AF4EEE78AF1EE10FA40F3DC80B0EEAB
:10122800007A5FEDE26A37EE687A67EE268AF4EEB6
:10123800E78AF1EE10FA3FF7C9AECBE6FFEE007A87
:10124800F4EEE79AF1EE10FA00F16681B7EE088A3B
:1012580029EE888AB4EEC78AF1EE10FA40F3C98005
:10126800F0EE007ADFEDD36A77EEC87A27EEA68A29
:10127800B4EEC78AF1EE10FA3FF77FAE81E6FFEED3
:10128800006AB4EEE6DAF1EE10FA00F13381F7EE17
:10129800087A6DEE277AF4EEC77AF1EE10FA40F389
:1012A800B680F0EE006A9FEDC36A76EEE77A67EEE5
:1012B800867AF4EEC77AF1EE10FA3FF735AE37E6E4
:1012C800DFEDBD8A24E59FEDBD8A33E79FEDBBDAEC
:1012D8000AE7BFEE007AF4EEC77AF1EE10FA00F1F1
:1012E800AA80DFEDB46AB7EE007A67EEA67AF4EE6C
:1012F800C77AF1EE10FA3FF717AEBFEE007AF4EEB8
:10130800C77AF1EE10FA7FF513AEB8EE007A77EEF1
:10131800677A0DE6FFEE007AB4EEE74AF1EE10FACE
:1013280000F184809FEDA37AF7EE007A24EE074A55
:10133800B4EEE74AF1EE10FA3FF7CDAD43E7FFEE22
:10134800007AF4EEE78AF1EE10FA7ED49FED997AEE
:10135800F7EE007A68EE878AF4EEE78AF1EE10FA83
:101368003FF734AEFFEE007AF4EEE78AF1EE10FABA
:101378007FF530AEF8EE007A77EEE88A2AE6FFEEDF
:10138800007AB4EEE78AF1EE10FA59D49FED897A23
:10139800F7EE007A28EE078AB4EEE78AF1EE10FA43
:1013A8003FF7EBADFFEE007AB4EEE78AF1EE10FA04
:1013B8007FF5E7ADF8EE007A37EEC88AE1E5DFEDB4
:1013C80080CA69E6DFED7F8AA2E49FED7D8AB1E6F7
:1013D8009FED7BDA88E6F4EEC78AF1EE10FAB5D510
:1013E800F8EE007A9FED737A77EEE87A67EE878AEF
:1013F800B8E7B4EEE78AF1EE10FAC7D5F8EE007A4E
:101408009FED6C7A77EEC87A27EE878ACAE7F4EE02
:10141800E67AF1EE10FA7FF564AFB8EE007ADFED08
:10142800656A77EE677A67EEA67A66E7F8EE007A7D
:1014380037EEC44A76E7B8EE007A77EE677A50E777
:10144800F8EE007A37EEC88AA0E7F8EE007A77EE71
:10145800E88A7BE7F6EE007A20EE270A15F03AFCD8
:1014680039EE687ADFED587AE7EE008A68EEA78AE7
:101478004EE4F6EE007AB0EE6D8A20EE270A15F0FB
:1014880029FC79EEED7AA7EE808A53E6B6EE00EAFB
:1014980020EE0E0A1CE6B0EE6CEA20EE080AA7EE73
:1014A80088EA15F017FC2EEE00EAACEE88EAF0EEBA
:1014B8004ECAF1E5F8EE006AB7EE086A76EEC98A18
:1014C80068EE868AF4EEE78AF1EE10FA36DDF0EE81
:1014D800007A77EEE88A39E7B8EE007A77EE6CCAD8
:1014E8002CEE844AB4EEC54AF1EE10FA33DD34EE40
:1014F800C44A17E7B8EE006AF7EE085A76EE4D7A56
:1015080067EEA57AF4EEC77AF1EE10FA30DDB0EEA8
:10151800007A77EE677AE4E6F8EE006AB7EE086AD2
:1015280036EEE98A28EE068AB4EEC78AF1EE10FA9A
:101538002BDDF0EE007A37EEC88A27E7F4EEC78A8B
:10154800F1EE10FA7FF502AF76EEE86ADFED198A60
:1015580066EEA88A06E7B4EEE74AF1EE10FA7FF5E0
:10156800E1AE37EE447A9FED134A27EE044A2AE6A5
:10157800F4EEE67AF1EE10FA7FF5B3AE36EE676A6E
:10158800DFED0C7A66EE277AB7E6B4EEE78AF1EE7D
:1015980010FA7FF5FBAE76EEC86A9FED068A26EE56
:1015A800888AFFE6B0EE4A0A15F0C6FFF0EE407AE8
:1015B80040E400BF9A99993F5D8F023F9A99593F3D
:1015C8006666E6BE713D8ABE9A99193F2DE9F04FCD
:1015D80000F52A250446DFF8E083002705F2C45603
:1015E800A0442DED048B87B086ED000A15F048F96C
:1015F800DD4B96ED009A04F50026636004F5C023E0
:10160800DA4A0193DA4B22602344DA4A86F8687B87
:1016180083ED0A9ADA6107EE907AB2EE088A01370A
:10162800B0EE000AF8EEE70AC0EE880A15F0C4FB2F
:101638000C2FA8EC010AEED1019B4FF48032DFEDAC
:10164800CE8A002103F64438CC4BDFF870934FF074
:10165800010B08F5003718194FF0000AA144C7ED2F
:10166800148A16F049F9C64B9FEDC60A234440E98F
:1016780002AB484687ED0D9AC7ED0F8A029314F026
:10168800FDFCC14851464FF48032C7ED158A20440D
:1016980016F032F9BD4A029B22449FEDBA0AC2E90C
:1016A80001ABBB4A87ED119A13441A46B94B104651
:1016B800FB64029214F0E2FC06F6A433B64AFFEE8D
:1016C800007A86F868BBD3ED006A48469FEDB36A96
:1016D800B0EEE67AF4EEE86AC7EE085ABCEEC77ACE
:1016E800F1EE10FA8DED037A9DF80C30A2FB03128F
:1016F8004FEAD20202EB4202BCEEE57AA3EB820388
:1017080048F2220252FA83F38DED047A4FF48042B4
:1017180008EB83089DF810305B44D8ED005AC6F8F2
:10172800642B07EE103ACCBF5B465346C7ED186AE8
:10173800B8EEC77A86F8703BE5EE877A97ED0A7AB5
:1017480067EE877A67EE867AF4EEE87AF1EE10FAB9
:1017580054BFB0EE670AB0EE680A87ED070A14F0C6
:101768008DFC97ED070A029814F088FC96F8683B00
:101778000BB186F868AB019B4FF00008884A00203F
:10178800DFF83CA204F520271A4405F2C45379492E
:10179800A24493ED009A834B5066334487F8208C1B
:1017A800D96183ED0A9A07EE908AB2EE088A08F1A9
:1017B8000108B0EE000AF8EEE70AC0EE880A15F054
:1017C800FBFAB8F10C0FAAEC010AECD106F6FC33CF
:1017D800DFED698A74484FF4803203F50038002140
:1017E80020440393C8ED148A16F086F86F4B002145
:1017F800DFF8D0B1E2180120E150043BA344506067
:1018080023449FED600A584688ED0D9AC8ED0F8A6B
:10181800049314F033FC66484FF480320021C8ED7D
:10182800158A2044DFF868A116F066F8614A049B1F
:10183800002101209FED530A9A44A31843F8041C81
:10184800544BA0505046C8F84C3088ED119A14F00B
:1018580015FC07F65C434FF001014F4AD3ED006ACF
:10186800FFEE007A87F8201C5846B0EEE67A9FED26
:101878004B6AF4EEE86AC7EE085ABCEEC77AF1EE96
:1018880010FA8DED047A9DF81030A2FB03124FEA8E
:10189800D20202EB4202BCEEE57AA3EB820348F2E5
:1018A800220252FA83F3039A8DED057A02EB830341
:1018B8004FF48042D3ED005A9DF81430C7F81C2C21
:1018C80003F10103C8ED186A07EE103ACCBF0123F3
:1018D8000023B8EEC77A87F8283CE5EE877A98EDBA
:1018E8000A7A67EE877A67EE867AF4EEE87AF1EE9E
:1018F80010FA54BFB0EE670AB0EE680A88ED070A1E
:1019080014F0BCFB98ED070A504614F0B7FB97F8A3
:10191800203C1BB14FF0000387F8203C019AF2EEFF
:10192800087A1F4B1344002293ED187A1D4BB4EE2E
:10193800677A3344F1EE10FA5A6640F09A8196F8C5
:10194800683B002B40F09581164BF2EE087A334441
:1019580093ED187AB4EE677AF1EE10FA34D197F86D
:10196800203C002B66D02FE000C05A459A99593F79
:10197800440B08000000A04000000000500B0600C7
:10198800440B0600000048425C0B0700500B0700A0
:1019980040000200DB0F4940ABAAAAAA0000803829
:1019A800440B0200FC0B0200080C0800000C0800A5
:1019B800140C0900100C0900CC0B0800740B08006B
:1019C800840C0A002C0C0A00DFF83C83F0EE006A55
:1019D800FFEE007AD7F81C3CB0449FEDC30A584686
:1019E80098ED226A98ED0A7AE6EE267A67EE877A0B
:1019F80007EE103ABD4BB8EE477AC8F860300123BD
:101A0800C7EE876A87F8283CF4EEC06AF1EE10FA50
:101A180058BFB0EE660A88ED070A14F02FFB98ED60
:101A2800070A504614F02AFB97F8203C13B100230C
:101A380087F8203CDFF8D48205F2C4569FEDAA8AC5
:101A4800A04496ED000ADFEDAA8A404614F0B0FBE8
:101A580040469FEDA80A14F033FC4046DFF8B082F8
:101A6800B0EE480A14F08CFC96ED000AA0444046FB
:101A780014F09EFB40469FED9F0A14F021FC40465F
:101A8800DFF89082B0EE480A14F07AFC96ED000A6E
:101A9800A044404614F08CFB4046B3EE040A14F010
:101AA8000FFC4046DFF87082B0EE480A14F068FC7C
:101AB80096ED000AA044404614F07AFB4046B3EE87
:101AC800040A14F0FDFB4046DFF85082B0EE480AE5
:101AD80014F056FC96ED000AA044404614F068FB4A
:101AE80040469FED850A14F0EBFB4046DFF8308254
:101AF800B0EE480A14F044FC96ED000AA0444046B3
:101B080014F056FB40469FED7C0A14F0D9FB404682
:101B1800DFF81082B0EE480A14F032FC96ED000AA5
:101B2800A044404614F044FBB0EE680A404614F066
:101B3800C7FB4046DFF8F081B0EE480A14F020FCFD
:101B480096ED000AA044404614F032FBB0EE680A55
:101B5800404614F0B5FB4046DFF8D081B0EE480AA5
:101B680014F00EFC96ED000AA044404614F020FB49
:101B7800B0EE680A404614F0A3FB4046DFF8B08197
:101B8800B0EE480A14F0FCFB96ED000AA04440466B
:101B980014F00EFBB0EE680A404614F091FBB0EE6C
:101BA800480A40464FF0000814F0EAFB53484FF447
:101BB80096420021204415F09FFE514841464FF4BB
:101BC80096422044C7F8B08F15F096FED6ED007AFD
:101BD8009FED4C7A41F2BF2204F5252407F6AC7339
:101BE80067EE877A04F6B820C4F8BC8ABDEEE77AB7
:101BF80017EE101AF8EEC76A914277EEE67A28BF18
:101C080011460A46C3ED007AC7F8B41F4FF07C515D
:101C1800C0ED007A05F5B960C4F8C02A05F2CC52C7
:101C280080ED008A05F5BB60116005F5BA6105F223
:101C3800D4522E4B81ED008A05F2DC5182ED008AE8
:101C480005F5BC6280ED008A05F2E45081ED008A5A
:101C580005F5BD61C2ED008A05F2EC5205F5BE65D9
:101C680003600B6013602B6007B0BDEC048BBDE80C
:101C7800F08FDFF8C080F0EE006A019BFFEE007A7B
:101C88009FED190A4846434493ED226A984693ED1E
:101C98000A7AE6EE267AD6F8643B67EE877A07EE8C
:101CA800103A124BB8EE477AC8F860300123C7EEF5
:101CB800876A86F8703BF4EEC06AF1EE10FA58BFF6
:101CC800B0EE660A88ED070A14F0D8F998ED070A0D
:101CD800029814F0D3F996F8683B002B3FF434AE21
:101CE800002386F8683B2FE6000000000000404112
:101CF80000007A4300401C4600001643B80F0A0053
:101D0800C45A0A000AD7233DFC0B0200B40C0A008F
:101D1800000D0A004C0D0A00980D0A00E40D0A0097
:101D2800300E0A007C0E0A00C80E0A00140F0A00C2
:101D3800600F0A00440B02002DE9F04F0446E94801
:101D480041F2BF2741F2C129204404F5202504F5BA
:101D580025282DED068B8DB0B0EE608AF0EE408A16
:101D6800CDE9031214F048FADF48B0EE480A2044DF
:101D780014F042FA05F6C863DC4893ED0D9A05F6AF
:101D88007C63204493ED0D0A14F036FAD848B0EE7F
:101D9800490A204414F030FA05F61471DFEDD56ACB
:101DA80005F6AC7ED1ED0D7A05F57662D5F8B03F33
:101DB8004FF4965067EEA67A92ED0D7ADE190EEB87
:101DC800830308F6B82227EE267AC3ED037A41F298
:101DD800C22CC94BB6EE003A9FEDC86AA3FB063188
:101DE8000292490A00FB116104F52A2606F2C4533F
:101DF800C5F8B01FD3ED007AD8F8BC3A67EE867AFA
:101E080003EB070A02EB830383ED037ABDEEE77A5F
:101E1800B94BA3FB0AB35B0A00FB13A3C8F8BC3A8F
:101E280017EE108AB8EEC77A4144434401EB000A22
:101E380003EB090201EB090801EB0C0B01EB0709A5
:101E4800DF19AD499C4405970344A1FB0A7177EE5D
:101E5800C77A490A00FB11AAA749A1FB08710EEB32
:101E68008A0A490ADAED035A00FB1188A249A1FB44
:101E780009710EEB8808490AD8ED033A00FB11995D
:101E88009D4975EEE34AA1FB0371029F0EEB890998
:101E9800490AF0EE646A99ED037A00FB1133DFF822
:101EA8008C9273EEC73A07EB8303A14493ED036A60
:101EB800E3EE836A904BA3FB02135B0A74EEA64A17
:101EC80000FB1323059A07EB830393ED034A8A4B20
:101ED80036EE445AA3FB02135B0A00FB1323864A1F
:101EE80007EB830393ED037AA2FB0B13A2FB0C12FF
:101EF80008A95B0A34EE474AB0EE457A520A00FB5D
:101F080013BB06F5B96300FB12CC09AAA4EE037A49
:101F18000EEB8B0E07EB8C0C20469EED032A04F586
:101F28000027DCED032A32EE652A72EEC62A35EE6A
:101F3800075AE2EE034AA2EE835A76EEA46A37EE17
:101F4800057AD7EEA46A95EE277A67EEA66A27EE99
:101F5800277AE3EE836AA4EE037AE7EEA65AA7EEA1
:101F6800276AD3ED007A06F5BA6393ED007A06F294
:101F7800D453E7EE275A93ED007A07ABA7EE876AAA
:101F8800009306ABCDED085A8DED096A14F044FDB7
:101F98005B489DED060A204414F02EF905F6E4533B
:101FA80058485B6B9DED070A20440A9314F024F906
:101FB80006F2EC5206F2E4539FED536A05F56361AD
:101FC80092ED007AD3ED007A06F5BE63496B77EEA1
:101FD800C77A0B91A7EE867A82ED007A06F5BD6284
:101FE800D3ED007AD2ED006A04F5C02276EEE76AF6
:101FF800E6EE867AC3ED007A444B2344D3ED186AA3
:10200800B4EE667AF1EE10FA40F0698197F8683B11
:10201800002B40F064813E4BDFF814813B44A04420
:1020280093ED187AB4EE677AF1EE10FA40F0F18089
:1020380095F8203C002B40F0EC8048460AA9FEF7B2
:1020480073FB0BA9F0EE409A4046FEF76DFB314852
:10205800B0EE409A2044B0EE690A14F0CDF82E484C
:1020680005F6B443B0EE490A204493ED0C9A14F0F7
:10207800C3F82A4805F55063B0EE490A204493EDA9
:102088000C9A14F0B9F805F64C532548B0EE490AF5
:10209800D3ED0D9A05F69855204414F0ADF8B0EE3E
:1020A800E97ADFED205A06F5BB6295ED0D9A06F246
:1020B800DC5327EE257AD2ED004A9FED1B6AF0EE3D
:1020C800C97A93ED005AA4EE867ADFED1A6A67EEB4
:1020D800A57AE5EE067AB4EEE67A82ED007AF1EEBC
:1020E80010FA2FE07C0E0A00C80E0A00140F0A002E
:1020F800600F0A00CDCC4C3FB5814E1B0AD7233D5B
:10210800E40D0A00300E0A006F12833A440B0800EF
:10211800FC0B0200B40C0A00000D0A004C0D0A006A
:10212800980D0A000AD7233CA4707D3F440B060093
:10213800FC0B0800CDCCCC3EC3F5283FCDCC8C3F62
:102148006666663FC3ED007A0BDD37EE667A5FEDB3
:10215800065AB0EE666AA7EE256A86EE867A69EEBA
:10216800879A1FED0C7AF4EEC77AF1EE10FA0BDDC0
:1021780077EEC77A1FED106AF0EE476AE7EE866AD7
:10218800C7EE267A29EE279A1FED14AA29EE8A0AA5
:1021980015F0F4F9F0EE407A29EE0A0AB0EE679AE3
:1021A80015F0ECF91FED1A7A06F5BA6206F2D45367
:1021B80006F2CC5669EE077A20EE077A9DED060AFC
:1021C800C2ED007A83ED007A15F0D8F9B0EE409AA6
:1021D8009DED070A15F0D2F9F7EE007A96ED007A30
:1021E800039B77EEC76A29EE079AA6EEA89A83EDB5
:1021F800009A96ED007A049B77EEC77A20EE070ADC
:10220800A7EE880A83ED000A0DB0BDEC068BBDE889
:10221800F08FF0EEE76A694AF2EE085A07F6FC37E3
:10222800F5EEC07A9FED660ABFEE007A654886EE45
:10223800A56A4044FCEEE66AF1EE10FACDED026ABA
:102248009DF80830A2FB03124FEAD20202EB4202C9
:10225800FCEEC66AA3EB820348F2220252FA83F329
:10226800CDED056A07EB830307F5003793ED006AA8
:102278009DF81430C7ED187A03F10103D7ED0A6A07
:1022880007EE903AD5F81C3CF8EEE77AA6EE277AE6
:1022980067EE267A07EE103ACCBF01230023B8EE8A
:1022A800477A85F8283CC7EE876AF4EEC06AF1EEF3
:1022B80010FA58BFB0EE660A87ED070A13F0DEFE83
:1022C800414897ED070A404413F0D8FE95F8203CA2
:1022D800002B3FF4B2AE002385F8203CADE6F0EECB
:1022E800C77A3649F2EE085A02F64432FFEE006A1F
:1022F8009FED330A02F50038B5EEC07A87EEA56A7D
:10230800FCEEE77AF1EE10FACDED027A9DF808308E
:10231800A1FB03012B484FEAD101484401EB4101DD
:10232800FCEEC67A98ED0A6AA3EB810348F2220113
:1023380051FA83F3CDED057A02EB8303D3ED005A0E
:102348009DF8143088ED187AB0EE667A03F101032F
:1023580007EE903AD7F8643BF8EEE77AA5EEA77A4D
:1023680067EE067A07EE103ACCBF01230023B8EED9
:10237800477A87F8703BC7EE876AF4EEC06AF1EED9
:1023880010FA58BFB0EE660A88ED070A13F076FE19
:102398000D4898ED070A484413F070FE97F8683B1B
:1023A8003BB106F5BE63D3ED007A002387F8683B9E
:1023B80031E606F5BE63D3ED007A2CE6ABAAAAAAED
:1023C8000000000030000200400002002DE9F04F3C
:1023D80000F58E140546EE4804F24C4305F5C02876
:1023E8002844EC4F05F53E262DED088B8BB0B0EE5A
:1023F800608AD3ED009AF0EE408ACDE9031214F01A
:102408001FF8E548B0EE409A284414F019F804F58E
:102418008B63B0EE087A9FEDE16AD3ED007AF6EEB1
:10242800005AD8F8483B77EE896ADFF8A4C3E9EE8A
:10243800867ADB4ADB48E0EE076A77EE897ABDEEFA
:10244800E66AE0EE077A16EE101AB8EEC65A194494
:1024580076EEC56A01EB0C0A01EB070E01EB0009E9
:10246800BDEEE77AA2FB0AB3DB0AB8EEC75A0CFB4B
:1024780013AAA2FB0EB377EEC57ADB0A0CFB13E3B3
:102488000593A2FB09E317EE10EADB0A0CFB13998C
:10249800D6F854379E440EEB000B774473460598E4
:1024A80008F6443E0EEB8A0A0EEB80000EEB890913
:1024B8009AED039A90ED035A99ED037AA2FB07A9C6
:1024C800B94839EE456A4FEAD92935EE475A0144E9
:1024D800184463440CFB1979B0EE467AA2FB03A7B3
:1024E800FF0AA5EE257A0CFB1733A2FB0BA7FF0A00
:1024F80036EE076A0CFB17B7A2FB01BAA2FB00B2C3
:102508004FEADA2AD20A0CFB1A110CFB12000EEB66
:10251800810E06F5EA61DEED034A01EB830301EB68
:10252800890974EEC94AD3ED039A01EB870701EBD9
:102538008001A4EEA56A37EE067A96EE867A99EDC2
:10254800036ADFF8989209EB050026EE877AA5EE74
:10255800257A91ED035A35EE695AA6EE879A97EDDA
:10256800037A79EEC66A914F36EE476AB0EE667A1C
:10257800B0EE490AA6EE257A76EE876AE5EE256A78
:1025880037EE267A97EEA67A27EE877AA6EE257A90
:10259800E7EE879A13F030FE94EDE30A781913F00A
:1025A8002BFE09EB0500D4EDF7AAB0EE690A13F08B
:1025B80023FE94EDE30A781913F01EFE94EDF7AAB2
:1025C800B0EEEA7ADFED7A5AF0EECA7A04F25C43AA
:1025D8009FED786A27EE257ADFED776A67EEA57AB0
:1025E800D3ED005AA5EE867A83ED007A04F58C6364
:1025F800B4EEE67AD3ED005AE5EE867AF1EE10FAFB
:10260800C3ED007A0BDD37EE667ADFED6C5AB0EE7B
:10261800666AA7EE256A86EE867A6AEE87AA9FED35
:10262800667AF4EEC77AF1EE10FA0BDD77EEC77A28
:102638009FED626AF0EE476AE7EE866AC7EE267A91
:102648002AEE27AADFED5E7A6AEEA7AAF5EEC0AAFF
:10265800F1EE10FA40F386809FED5A0A2AEE800ABE
:1026680014F08CFFB0EE40BADFED557A2AEE27AAB7
:10267800B5EEC0AAF1EE10FA7FDD9FED520A2AEE00
:10268800000A14F07BFFF0EE40AADFED4FBA09AF65
:102698002BEE2B0A14F072FFB0EE40AA2AEEAB0A1A
:1026A80014F06CFFDFED497A04F58A61F0EE686A90
:1026B8002AEE27AAD8F8482B20EE270AD1ED007A6F
:1026C800384B2846E7EE8A6A414DD11808EB82025A
:1026D800B0EE487A8DED069A02F64C32CDED079AA7
:1026E80004F25444A7EE807AC2ED016A2C4AA2FB98
:1026F80001EC4FEADC2C05FB1C11C8F8481BD6F886
:1027080054170B4406EB8101A2FB03C201F5EB61F0
:10271800D20A81ED017A009706A905FB123307AAB0
:10272800C6F8543708AB14F077F9DFED2A7AD4ED00
:10273800006AE9EE278A9DED087AA9EEA78A039B2D
:10274800DDED097AE6EE878AC3ED008A94ED007A1A
:10275800049BA7EE278A83ED008A0BB0BDEC088B9B
:10276800BDE8F08F9FED180A2AEE800A14F006FFE4
:10277800DFED197A20EE27BA76E79FED130A2AEEE5
:10278800000A14F0FBFEDFED147A60EE27AA7CE75E
:10279800F4C311000177010020C411008FC2753CF9
:1027A800F1197605FF76010002770100A8C3110030
:1027B8000AD7233CA4707D3F9A99993EC3F5283FD8
:1027C8006666E63F6666663F9A99993F9A99593FC9
:1027D80000770100CDCC4C3F3333733F5CC311000D
:1027E8002DE9F04F2DED068B8BB08346D248DFF8EC
:1027F800A4A3CDE9022101F01DF9D04BDAED007A4E
:102808001A78002A00F00B81DFEDCD6A9FEDCD7AB2
:1028180077EEE67A67EEA77AF4EEC77ACAED007A21
:10282800F1EE10FA40F21B81C74B1D780493C24C9D
:10283800D4ED878A94ED8F8A94F87860002D00F0A3
:102848001981012D00F03C83022D00F0A581BF4BBA
:10285800F0EE680A9FEDBE0A1D6814F0ADFA28EE86
:10286800088ADFEDBC6ADFEDBC7A9FEDBC7AE8EE42
:10287800267A20EE077A85ED117AC5ED157A002EB5
:1028880040F0B881DFEDB67AD5ED146AB7EE007A7C
:1028980077EEA67AF4EEC77AF1EE10FA40F3D88212
:1028A800F0EE477AAF48C5ED147A03F063FB0028D1
:1028B80000F0A282AC4803F05DFBF7EE007ABFEEB1
:1028C800007A0028A94847FE877AC5ED137A03F0F5
:1028D80051FB002840F09A824FF07C53AB64029B76
:1028E800002B00F01F810027049BBE001B78002BE3
:1028F80000F09281012B00F06482022B00F04C82E0
:10290800924B00249A481D680023D5ED117A05F1F1
:102918000408D5ED136A05F1240995ED007A2844D9
:1029280067EEA67A0693079387EE879A13F088FDD9
:1029380005964646DDED06AAC8469DED07AAF0EEC7
:10294800408A57E038EE678A06ED018A9FED890ACA
:10295800F7EE009A28EE000A14F0C2FCF0EE407A76
:10296800F2EE040AB6EE007A79EEE77A68EE200A0B
:10297800B0EE000A27EE878A14F01EFAF3EE047A06
:10298800D5ED006AB9EC017A20EE270AC0EE267A66
:102998009FED780A77EE877AF4EEE97AF1EE10FA8D
:1029A800A8BF77EEE97A27EE800A49ED017A14F09C
:1029B8009FFBF6EE007AE3079FED6F7AF6EE006A6A
:1029C80004F1010468EEA77A54BF77EE877A77EEB0
:1029D800C77A464536EEE77A77EEA67A27EE087A82
:1029E80067EE887AA0EE07AAE0EE27AA8DED07AA7F
:1029F80000F06E81B6EC018AF7EE007A39EE088AAB
:102A0800B4EEE78AF1EE10FA9CDAB5EEC08AF1EE80
:102A180010FA48BF38EE278A06ED018A96E7B7EE26
:102A2800007AF4EEC77AF1EE10FA7FF5FDAEDFED2D
:102A3800446A37EEA60AB5EE400AF1EE10FA00F144
:102A4800A383F1EEC07A404B1D780493F4EE477AE5
:102A5800F1EE10FA77FE277ACAED007AE7E6474AE0
:102A680015780022CAF80020374A0492157000220F
:102A78001A70DCE6002E40F0C680DFED397A404C53
:102A8800B7EE007A374894ED996ADFED356A77EE4C
:102A9800867AC7FEA67AC7FEC77AC4ED997A03F08C
:102AA80069FA002840F0BB81304803F063FA002837
:102AB80040F0CE82012384F89C320125DFED310AF3
:102AC800B2EE040A84F89D52C8EEA00A14F074F914
:102AD80094ED9A7A94ED9B6AD4ED9C6AD4ED995A58
:102AE800F1EE044A9FED284A35EEE65ADFED275A03
:102AF80038EE468A029B60EE247AC7FEA47AC7FEA7
:102B0800C47A77EEC77AA8EE256AE5EE256AA7EEBD
:102B1800A57A84ED9B6AC4ED9C6A84ED9A7A002BB1
:102B28007FF4E1AE039B1968049B1B78022B40F2EB
:102B3800B6809FED178AB7E0B40600240404002489
:102B4800A69BC43B6F12833A0504002408040024A2
:102B58000000C84200803B46000048430AD7233C97
:102B68000000000004090024180900242C0900248E
:102B78009C0B0600DB0FC940CDCC4C3E080000245E
:102B88001404002442F88F3E00A08C46CDCC4C3D66
:102B98003333B33F0C000024B24B1D68002E00F005
:102BA8005482D4ED337A9FEDB07AF8EEE77A67EE87
:102BB800877A05F52A24DFEDAD6A9FEDAD7A04F535
:102BC800B963AC4893ED006A77EE867AC7FEA67AB9
:102BD800C7FEC77AC3ED007A03F0CCF9002840F0AD
:102BE800D881A54803F0C6F9002840F04682A34AD8
:102BF800A34BE0E1D4ED337A9FED9B7AF8EEE77AC8
:102C080067EE877A40E6D4ED337A9FED977AF8EE4F
:102C1800E77A67EE877A32E7DBE90032994808A954
:102C280032443344D2ED000A09AA93ED000AFDF7B5
:102C3800A7FF9DED088A9DED090A934BF6EE006A01
:102C480038EE406A9AED007AF7EE005AD3ED007A32
:102C580038EE008A039B26EE266A013777EEA57ABE
:102C680019685B688A1967EE867A3344B0EE676A3A
:102C7800D8EE267AA8EE266A27EE067A82ED007A42
:102C88009AED007A67EE277AC3ED007A029BBB4281
:102C98007FF42AAE049B1B78022B3FF64AAF7B4A8F
:102CA80002EB830393ED008A029CB0EE480A784851
:102CB800224613F01BFA039BB0EE480A22465968D5
:102CC80074480BB0BDEC068BBDE8F04F13F00EBA9C
:102CD800DFED717AF7EE089ADFF8E0816AEEA7AACD
:102CE80095ED150A6AEE277A08EB05006B4C059EF0
:102CF800CDED077ACDED06AA13F0E2FADFED687A9A
:102D0800601995ED150A9FED679A20EE270A13F0D2
:102D1800D7FA9DED060A08EB050013F06DFA9DED54
:102D2800070A601913F068FA05F5C02108AB07AA6D
:102D380001F6CC3001F61841096B006B079109A91F
:102D4800069005F15800009106A913F065FEB7EE4C
:102D5800007AD5ED147A9DED080A37EE677ADDED35
:102D6800066A27EE800A9DED096A67EE868ADDED20
:102D7800077AA7EE260AE7EE278A20EE290A14F03A
:102D8800FDFBB0EE408A28EEA90A14F0F7FB20EE0E
:102D9800090A28EE098A50E7DBF8043009AA08A9CD
:102DA8003344D3ED000ADBF80030334493ED000AD6
:102DB8002C4B1868FEF7C0FF9DED088A9DED090AA7
:102DC8003BE7DBF8043009AADFED377A08A933447A
:102DD800D3ED000ADBF8003060EEA70A334493ED28
:102DE800000A324B20EE270A1868FFF7EFFA9DED2C
:102DF800088A9DED090A20E7DFED1C7A1E48C5ED1B
:102E0800137A03F0B7F800283FF466AD284803F0BA
:102E1800B1F8002800F0B380264BAB645FE5264884
:102E280003F0A8F880F001061348F6B2760003F024
:102E3800A1F8002800F0A6801D4803F09BF8022E98
:102E48004FEA400384F89C323FF438AE022535E659
:102E5800F5EE407A9FED057AF1EE10FA48BFF0EEF4
:102E6800477A1FE50C040024CDCC4C3D000000003F
:102E7800CDCCCC3E040900242C0900246666DE4033
:102E88009A99E1401404002404000024D87C010825
:102E980000040024FC0300249A99193E180C06002B
:102EA800CDCC8C3F6666663F9A99993F1004002402
:102EB80040090024CDCC4C3E18090024CC0B060058
:102EC800B64B1D68002E00F0D580D4ED337A9FED07
:102ED800B47AF8EEE77A67EE877A05F58E14B7EEDE
:102EE800007ADFEDB06A04F25443AF4893ED006A0C
:102EF80077EE867AC7FEA67AC7FEC77AC3ED007A50
:102F080003F038F8002840F0AA80A84803F032F807
:102F1800002840F0D6800123DFEDA57A9FEDA57A41
:102F2800A8EEA77A04F58B6204F24C41DFED9C6AA7
:102F3800022BD2ED007AD1ED005AB0EE676A95EE19
:102F4800876AE6EE267AC2ED007A00F0F380012B5C
:102F580000F0CB8098489FED990A284413F0B0F907
:102F680097489FED980A284413F0AAF9DFED967A5E
:102F780004F58A6468EE277AC4ED007AAFE4934BCF
:102F8800AB64ACE40123022E84F89C327FF45EAF7C
:102F980094E58F4802F0EEFF80F001068348F6B210
:102FA800760002F0E7FF002840F08280022E40F011
:102FB800E080884A884B04F2E45188489FED880AEB
:102FC8000A6004F5BD622844136013F079F9854856
:102FD8009FED830A284413F073F9834BDFED836A6E
:102FE80004F5BC66DFED827A04F2CC546B60E8EE3F
:102FF800267A96ED000A9FED7F7A7F48284477EE7F
:10300800C07AA7EE870A86ED000A13F059F97B48C3
:1030180096ED000A284413F053F9794896ED000A12
:10302800284413F04DF9774896ED000A284413F028
:1030380047F99FED757ADFED757A4FF07C53E8EE2E
:10304800877AC5ED007A236049E4DFED567AB0E56A
:103058006F4802F08FFF430084F89C322DE55C48EE
:1030680002F088FF002872D0504802F083FF80BB2E
:10307800012335E0DFED4B7A2FE7654802F07AFF50
:10308800644A654B002841D004F2E45153489FED4F
:10309800630A0A6004F5BD622844136013F010F94E
:1030A80050489FED5E0A284413F00AF95C4B95E7F7
:1030B800574802F05FFF28B3022E5DD0594A5A4B99
:1030C800E2E7534802F056FF80F00103DBB25B00F1
:1030D80022E74F4802F04EFF80F00103DBB25B00AD
:1030E800B6EE007A38EE877A1CE733489FED4F0A30
:1030F800284413F0E5F832489FED4D0A284413F0B0
:10310800DFF833E7022E3CD1324A334B04F2E45164
:1031180032489FED480A0A6004F5BD6228441360EE
:1031280013F0CEF82F489FED430A284413F0C8F84F
:10313800414B53E720489FED410A284413F0C0F85B
:103148001F489FED3F0A284413F0BAF80EE71748C6
:1031580002F010FF98B12E4802F00CFF80F0010336
:10316800DBB25B00DFED377A9FED377AA8EEA77AFE
:10317800D8E62C4A2C4B1EE7164A174B84E7012346
:10318800F0E7284A284BC1E714F0D6F92F4B8AED0F
:10319800000A1D780493FFF74ABB00BF10040024FF
:1031A800CDCC4C3D00000000040900242C0900246B
:1031B800CDCCCC3E9A99993E5CC311000000964450
:1031C800A8C311000000C843CDCC8C3FCDCC4C3FE8
:1031D8001809002433333F41CDCC4041B40C0A00D8
:1031E80000409C45000D0A0000007A450000AF43EE
:1031F800000016430AD7233C7C0E0A00C80E0A00BA
:10320800140F0A00600F0A00295C8F3E3333333FE6
:10321800400900246666DE409A99E14000007A443D
:1032280000007A44CDCC40C133333FC100A08C4567
:103238000000C84200606A4600803B4600803B466A
:1032480000004843CDCC4C3ECDCCCC3D05040024F9
:103258002DE9F84F0021CF48CF4E0024002740F237
:10326800011B06F58E1506F5C0292DED048B00F01F
:10327800BDFAC84800F0D6FBC64800F0D1FBB0EE56
:10328800408AC64805F24C4812F02CFFC44812F098
:1032980029FFB0EE480AC34809F64439FDF7A8FBF0
:1032A800C14A0021304614F027FBC04BC04A002118
:1032B800C048B7EE009A1E6005F5856A88ED008A59
:1032C80014F01AFB2146BA4ABB48C9F8044014F066
:1032D80013FBBA4A06F53E23B0EE480A3046C3F857
:1032E800582703F5EA63C9F808205C60C9F800703C
:1032F80005F582691F6013F0C3FAB14B05F55770E5
:1033080098ED000A3360AF4BDFEDAF8A736012F0BF
:103318004FFF05F56A7098ED000A12F049FFD8EDE5
:10332800007A05F204434FF07C5689EE277A05F5BA
:103338007D70C3ED007A05F58163C5F8F863C5EDC6
:10334800FF8AB0EE680A83ED007A05F580631E6097
:1033580005F20C431F6013F009FAF0EE407A05F508
:103368007D70B0EE040A85F8F443A5F81CB4C9EDE5
:10337800007A85EDFF0A13F0F9F9D8ED007A05F522
:103388008460924B89EE277A89ED000AC5F8F833F4
:1033980005F5866305F22449CAED008AC3ED007A73
:1033A80005F23443C9F80060B0EE680A83ED007A8C
:1033B80005F22C431E6005F5876305F23C461F6045
:1033C80013F0D4F9F0EE407A01239FED810A05F558
:1033D800846085F82034A5F848B4C6ED007A8AEDF3
:1033E800000A13F0C3F99FED7B7A05F25C42D8ED31
:1033F800007A05F58B60784B214667EE877A17606F
:1034080005F58C6205F2544586ED000AC0ED007A98
:1034180018461760714A2F6089ED009A14F06CFA0B
:103428006F4DB0EE480A6F4A1060FEF7CFF86E4A4B
:103438002146284614F060FA6C4A2B46214615604E
:10344800A3EC018A07EE901A0131FAEEEE7A082908
:10345800E3EC017AF6D1664EB0EE480AF7EE008A40
:1034680005F5C02430464FF07C5713F009FA56EDA5
:10347800167A534B04F6A43888EEA77A9FED698A2A
:10348800AB6504F53A695B4B9FED4F0AEB6504F6B3
:10349800AC335948C3ED007A04F53B6388ED000A64
:1034A800C9F8007083ED007A04F6A8331F6004F6AB
:1034B800B43383ED008A13F059F90023F0EE407A13
:1034C8009FED440A84F89C3B40F2011388ED000A02
:1034D80004F6B8384848C8ED007AA4F8C43B13F09D
:1034E80045F9464888ED000AC9F8007012F0FAFD5F
:1034F8004349444A444B16ED160A444869642A6510
:103508006B65AF64C5ED138A12F052FE16ED160A0C
:103518003F4812F04DFEB0EE480A3C4812F030FF2A
:103528001C4DB0EE480A3A483A4E12F029FF3A4F7D
:10353800DFF8EC803949174800F070FA154800F0B8
:1035480075FA95F8802033781AB195F898207F2A73
:103558006AD0002B40F08D803C78002C70D19FED14
:10356800311AB7EE000A00210A48F0EE410A00F0CD
:1035780071FA9FED2C1AB7EE000A0121F0EE410A0C
:10358800044800F067FA034800F06CFA012004F0E0
:1035980009F9D3E7B406002458B210C00004002487
:1035A800FC0300241404002464C411001004002443
:1035B80000DC0500A8BD16C0B4991CC0FF76010048
:1035C8009A99593F00007A450000C84200002041FE
:1035D800CDCC4C3ECDCCCC3D640C06C0F4A50A0045
:1035E800000000C00C040024640C06000804002439
:1035F800580000C000401C469C0B06C0C80B06C003
:10360800CDCC4C3E9A99993E00803B46CC0B06C0E7
:10361800180C06C00404002405040024E927000847
:1036280008000024000000001BBB01223C78144461
:103638003270032C02DDC8F8003090E7C8F800406B
:10364800012C2CD0022CB7EE001A15D0F0EE410A4E
:103658001FED0C0A00211C4800F0FCF9B7EE001A17
:103668009FED1A0A01211848F0EE410A00F0F2F91C
:1036780089E7D8F8004070E7F0EE410A0021B0EE83
:10368800410A114800F0E6F9B7EE001A01210E4888
:10369800F0EE410AB0EE410A00F0DCF973E79FED65
:1036A8000B1AF7EE000A00210748B0EE410A00F0B5
:1036B800D1F99FED061AF7EE000A2146B0EE410A4D
:1036C800014800F0C7F95EE7B406002400000000D6
:1036D8003E4B00214FF60B7003F1E80210B56FF076
:1036E800F414596119621885596398879964A3F885
:1036F800580059661967A3F88400C3F89010A3F816
:10370800A000C3F8AC10A3F8B400C3E90014C3E9DF
:10371800024403F5F874C3E90B11C3E91011C3E9B6
:103728001711C3E92211C3E92911C3E92E11C3F8FE
:10373800C010A3F8D000C3F8DC10C3E935118432F7
:1037480000204FF60B7C944242F8600C22F86CCCB7
:1037580022F840CC42F8340C22F814CC42F8080C79
:1037680042E91A0042E90F0042E90400E7D1C3F830
:103778005C02C3F87002C3F88402C3F89802144AC2
:103788001449A3F850C2A3F864C2A3F878C2A3F8F6
:103798008CC2C3E99500C3E99A00C3E99F00C3E955
:1037A800A4000A4813F090FA094A0B490B4813F091
:1037B8008BFA074A0A490B4813F086FA044A084963
:1037C8000948BDE8104013F07FBA00BFB4060024D2
:1037D80000000024250700082D0700081404002411
:1037E8002907000800040024FC0300242DE9F04FF9
:1037F80005460C46022605F118072DED028BCBB0C5
:1038080000F03CF9214628467D4C00F01DFA302195
:1038180028460DF1200900F03BF9284600F034F95C
:103828002846B0EE408A00F04FF9764907EE900A34
:10383800754A0B2066F30703F8EE677A9FED730A63
:1038480060F30F230920C8EE278A9FED718ACDE91E
:10385800041266F3070266F3070160F30F220A20D9
:1038680060F30F2140F60240CDE906406948002484
:10387800C9F800006848099040F20240ADF82800F5
:1038880005F1740001F022FC0022072362F307010E
:1038980005F1D00063F30F2101F084FCBDF810306E
:1038A800224605F51470ADF80C30BDF814300399B4
:1038B800ADF82C300123009402F04EFA0123224681
:1038C8000B9905F51970009402F046FABDF812300C
:1038D800224605F51E70ADF80C30BDF81630039978
:1038E800ADF82C300123009402F036FA0123224669
:1038F8000B9905F52370009402F02EFA4FF60B731E
:1039080032460BA8ADF82C30ADF84030ADF8543045
:10391800ADF86830ADF88030ADF89430ADF8A83027
:10392800ADF8BC300E94139418941D9423942894E5
:103938002D943294CDE90C44CDE91144CDE91644D7
:10394800CDE91B44CDE92144CDE92644CDE92B44FA
:10395800CDE93044ADF8D4300999ADF8FC30ADF874
:103968001031389442944794CDE93A34CDE936443D
:10397800CDE93C44CDE94044CDE9454401F0B2FCF1
:103988003246BDF8261020A801F0ACFC32460A9950
:1039980035A805F5F87601F0A5FC0BA90423032248
:1039A800384601F0AFFCE1B23846013401F0AAFE16
:1039B800F0EE480A0146B0EE680A304600230122BC
:1039C80001F02EFB032C06F12006ECD1012405F1B1
:1039D800E800DDE906120094D9F8003001F0F4FBA4
:1039E800B9F80230BDF81E2005F5B670BDF81A10FA
:1039F800009401F0E9FB4BB0BDEC028BBDE8F08F01
:103A08000002030B0101010F0200010E000000007B
:103A18006F12033B030200010005000600F030B8F6
:103A280000F032B8183001F059BE00BF743001F010
:103A38007BBB00BF10B5044600F5F87001F022FB0F
:103A480004F5047001F01EFB04F50C70BDE810408D
:103A580001F018BB01EB411100EB8100E83001F0E7
:103A6800DFBB00BF10B50446E83001F0F3FB04F5F6
:103A7800B670BDE8104001F0EDBB00BF704700BF55
:103A8800143001F09BBA00BF143001F093BA00BFA4
:103A980038B500F1140504462DED028B284601F0D7
:103AA8007BFA284601F086FA2846B0EE408A01F0F3
:103AB8006FFAD0ED007AF8EE677A88EE277ABDECD7
:103AC800028B84ED1B7A38BD08B5143001F060FA1A
:103AD800006808BD10B540F203318EB000244FF6DF
:103AE8000B7340F20342ADF80810029909A8ADF82B
:103AF8001030ADF824300123ADF80C202246009494
:103B080007940C94CDE90544CDE90A4402F024F960
:103B180004A8012322460399009402F01DF909A87C
:103B280002F028FA10B901200EB010BD04A802F066
:103B380021FA80F00100C0B240000EB010BD00BFF5
:103B48002DE9F04103239AB00125002414934FF680
:103B58000B78394B064610941193A3F19F63159582
:103B6800A3F57D43ADF84C80CDE916451293FFF7D8
:103B7800B1FFA84207463DD002282BD12F4B2A4639
:103B88000094CDF84A3040F60133ADF82C80ADF8FA
:103B98001830234606990E94CDE918450BAD2846F2
:103BA800CDE90C4402F0D8F82146284602F0EEF997
:103BB80010A906F1700003F0C7FB214B0FCB85E875
:103BC8000F00326F294606F1140001F0A9F91AB066
:103BD800BDE8F08140F60132184B06F158001995FE
:103BE800ADF82C200BAD0B991894CDF84A3000F0A5
:103BF800A3F8DDE71023114A06A906908DF82830AE
:103C08000BAD104BCDF84A2009940294CDE907304A
:103C1800CDE9180402A802F039FB0823029A03A987
:103C28002846ADF80C708DF80E40049705930B9458
:103C380000F0C2F8BCE700BF040204040406040351
:103C4800947C01080704010B2DE9F041384B044628
:103C5800384D40F20112012604F104082DED028BC3
:103C680082B04560A36003F58133ADF8042040F2CB
:103C7800027203F5807300202285E36040F6066334
:103C88002682A387E662266400918DF8060003F079
:103C980039FF054603F088FD6946074610BB0DB39A
:103CA80004F150008DF8066003F0AEFE072D36D102
:103CB80004F114052046FFF743FF284601F07AF97E
:103CC8002846B0EE408A01F063F9D0ED007AF8EEAC
:103CD800677A88EE277A84ED1B7A02B0BDEC028BF6
:103CE800BDE8F08104F1500003F08EFE072D02D1EB
:103CF800002FDDD004E04146204602F071FE9FB15E
:103D080004F12801084601F00DFE04F13C010846C3
:103D180001F008FE04F1120000F06AF9C8E7414614
:103D2800204602F05DFEC3E7002DE9D0C0E700BFE2
:103D3800050705060508050930B585B000250446C0
:103D48000122ADF80C102B460399009502F004F8F7
:103D58000121204602F01AF9012003F023FD29462B
:103D6800204602F013F9012003F01CFD0121204632
:103D780005B0BDE8304002F009B900BF10B5C2F384
:103D8800002384B00C46017C8DF80D2043EA4402E0
:103D9800FA2402238DF80C2003AA009402F00AFBEF
:103DA80018B10124204604B010BD04460A2003F0CF
:103DB800F9FC204604B010BD034670B5044684B033
:103DC80043F8042BFA2507C983E80700A1791E23C5
:103DD800009503AA1A31ADF80C3020460223C9B267
:103DE800217402F0E7FA10B1012004B070BD0A2076
:103DF80003F0D8FC4FF4B85200950223ADF80C201C
:103E0800204603AA217C02F0D5FA0028ECD10A202A
:103E180003F0C8FC41F2027200950223ADF80C20B1
:103E2800204603AA217C02F0C5FA0028DCD10A202A
:103E380003F0B8FC042200950223ADF80C202046BC
:103E480003AA217C02F0B6FA0028CDD10A2003F09B
:103E5800A9FC062200950223ADF80C20204603AAEF
:103E6800217C02F0A7FA0028BED10A2003F09AFCB0
:103E780041F2082200950223ADF80C20204603AA3F
:103E8800217C02F097FA0028AED10A200A2603F016
:103E980089FC0095022303AA217C2046ADF80C601A
:103EA80002F088FA00289FD1304603F07BFC237982
:103EB8000C220095002B217C8DF80C20204614BF85
:103EC800622342236A448DF80D30022302F072FA0D
:103ED800002889D1304603F065FCA3680095204688
:103EE800E268217C1343627943EA4213227982F023
:103EF800010243EA82130E228DF80D3002238DF859
:103F08000C2003AA02F056FA00287FF46DAF304661
:103F180003F048FC102200950223ADF80C2020463F
:103F280003AA217C02F046FA00287FF45DAF3046F0
:103F380003F038FC122100950223ADF80C1003AAF7
:103F4800217C204602F036FA00287FF44DAF304637
:103F580003F028FC01220921204604B0BDE8704086
:103F6800FFF70CBF70B586B000240125102602A902
:103F78004FF480521C480194CDE90256CDE904540F
:103F88000CF036FA642003F09BFF022302A94FF4D9
:103F98008052154802930594CDE903650CF028FA80
:103FA800042302A94FF480520F480396CDE9043444
:103FB800032302930CF01CFA40F23223042202A9D4
:103FC8000948019310230495CDE90223019B4FF47E
:103FD800805205930CF00CFA40F6060102480CF0EA
:103FE80027FA204606B070BD5C09002400000000D6
:103FF80070B51D4B88B008224FF4006400211B4E99
:104008001A614FF0020C03920A225C622024069285
:104018004022054699600320196210215E6001263E
:10402800C3E905424FF4C072DE60DA6107229FEDF2
:104038000C7BCDE900C20422CDE904016946181DB4
:10404800029283ED0A7B0CF0A9F930B904462846A0
:10405800FFF788FF204608B070BD304608B070BD35
:1040680000100000000000005809002440410052E0
:104078005E4A0023F0B514688FB00A93002C40F014
:10408800B2805B4B012103260C2511600227D3F86F
:10409800D420584842F48052C3F8D420D3F8D4200E
:1040A80002F480520092009AD3F8E02042F0100205
:1040B800C3F8E020D3F8E02002F010020192019A40
:1040C800D3F8E02042F04002C3F8E020D3F8E02023
:1040D80002F040020292029AD3F8E02042F008026D
:1040E800C3F8E020D3F8E02002F008020392039A14
:1040F800D3F8E02042F48072C3F8E020D3F8E0203F
:1041080002F480720492049AD3F8E02042F080020C
:10411800C3F8E020D3F8E02002F080020592059A67
:10412800D3F8E02042F02002C3F8E020D3F8E020E2
:1041380002F020020692069AD3F8E02042F0040228
:10414800C3F8E0204FF68372D3F8E0300B9603F003
:1041580004030C9507930223079908A9CDE90823BE
:1041680006F08CF848F2371308A9234808930C95F1
:104178000997CDE90A4606F081F84CF2037308A9BD
:104188001E480893CDE90974CDE90B6506F076F869
:1041980040F2FF6308A91A480893CDE90974CDE9EC
:1041A8000B6506F06BF84FF60C7308A915480893D1
:1041B800CDE90974CDE90B6506F060F84FF63F03C9
:1041C80008A911480893CDE90974CDE90B6506F0F3
:1041D80055F8202308A90B4809970C950893CDE9B1
:1041E8000A4606F04BF80FB0F0BD00BF5409002492
:1041F800004402580010025800180258000C0258D7
:1042080000200258001C0258001402582DE9F04FF3
:104218008BB0DFF8588106464E4800AF0D4614466D
:1042280003F090F94369D8E90621002A00F0E081FB
:10423800002940F09D800222D8F804A04FF0080918
:104248007A62BAF1000F00F09D80A200E946012BC6
:1042580002F1070222F00702ADEB020D6846ADEB52
:10426800020DEB4600F0CB81022B00F05982002BA7
:1042780040F0BA81002C00F0B7811A46D8ED0C6ADC
:104288009FED357A0146331D36F922C0083107EE15
:1042980090CA33F922C00232F8EEE77A944267EE08
:1042A800877A67EEA67A41ED027A07EE90CAF8EEB1
:1042B800E77A67EE877A67EEA67A41ED017AE3D866
:1042C80059462246D047002198ED0D6A2B1DDFED97
:1042D800236A23489FED237ADFED235ADBED007A2A
:1042E800024666EE277AF4EEE67AF1EE10FA0CD979
:1042F800F4EEC77AF1EE10FA67FE277A67EEA57A30
:10430800FDEEE77A17EE902A12B2DBED017A45F856
:10431800212066EE277AF4EEE67AF1EE10FA40F202
:10432800DB81F4EEC77A0BF1080BF1EE10FA67FEA9
:10433800277A67EEA57AFDEEE77A17EE902A12B291
:1043480043F821200231A142C8D3CD462C37BD46BF
:10435800BDE8F08FA80900240000003804FF7FBFE3
:104368000280FFFF04FF7F3F00FEFF469009002404
:104378000422D8F804A04FF010097A62BAF1000FAD
:104388007FF463AF3B62D8F80030BB61002BDDD00F
:10439800DA48C7F810D003F03FF97B6AF860022BBF
:1043A8003B6A00F044826A4660084946012BA2EB4A
:1043B800C4029546B860C4F35D02EB46ABEBC4009B
:1043C8008546EE46ADEB090D0BEB820968460EEB10
:1043D800820CADEB010D0146C7F820D0F961C0E9A8
:1043E80000B909EB820088600CEB8201786178697A
:1043F800029101EB820100EB82000391F969CDE99A
:1044080000ECC86000F0EE83022B00F00183002B63
:1044180040F0F581002C00F04B847A6A022A00F003
:104428004D841946D8F82420FB68DFEDB55A02EB15
:104438008302FB697D6102F1040ED3E902A0331DFA
:10444800844636F92100D8ED0C7A06EE100A33F9C5
:10445800210006EE900A32F92100B8EEC66A07EE8E
:10446800100AF8EEE66A3EF92100B8EEC77A26EEA1
:10447800256A66EEA56A27EE257A26EE276A66EE95
:10448800A76A27EE277A07EE900A48080231F8EE65
:10449800E77A0BEB80058C4285ED006A09EB800515
:1044A80067EEA57AC5ED006A0AEB80050CEB800083
:1044B80085ED007A98ED0C7A67EE877AC0ED007A80
:1044C800BFD87D69BB69BA68D7E9070198473B6AD5
:1044D80098ED0D7AD3E900CE7B6A022B00F03D847B
:1044E800D8F82C300020FA68DFED8C6A03EB820ADA
:1044F8003B6A9FED846ADFED845A0AF10408834E13
:10450800D3E9029B2B1D42080CEB82019200D1EDEE
:10451800007A67EE277AF4EEE67AF1EE10FA40F2C6
:104528008481F4EEC67AF1EE10FA66FE277A67EE19
:10453800A57AFDEEE77A17EE901A09B245F8201031
:104548000EEB0201D1ED007A67EE277AF4EEE67AF7
:10455800F1EE10FA40F26781F4EEC67AF1EE10FA45
:1045680066FE277A67EEA57AFDEEE77A17EE901ACF
:1045780009B243F8201009EB0201D1ED007A67EE89
:10458800277AF4EEE67AF1EE10FA40F24A81F4EE78
:10459800C67AF1EE10FA66FE277A67EEA57AFDEE86
:1045A800E77A17EE901A09B25A444AF82010D2ED69
:1045B800007A67EE277AF4EEE67AF1EE10FA40F226
:1045C8002981F4EEC67AF1EE10FA66FE277A67EED4
:1045D800A57AFDEEE77A17EE902A12B248F8202065
:1045E800023084428FD80FE122465946D047ACE6C4
:1045F80000297FF420AE2C37BD46BDE8F08F002C93
:10460800F2D0D8ED0C6A84469FED417A0021331D23
:1046180056F821200CF1080C82F40002A2F50002E1
:1046280007EE902A53F821200231F8EEE77A82F457
:1046380000028C42A2F5000267EE877A67EEA67A3E
:104648004CED027A07EE902AF8EEE77A67EE877A61
:1046580067EEA67A4CED017ADAD822465946D04759
:10466800002298ED0D6A2B1DDFED2C6A29489FED7D
:10467800257ADBED007A014666EE277AF4EEE67AD3
:10468800F1EE10FA0BD9F4EEC77AF1EE10FA67FEE4
:10469800277AF0EE675AFEEEE45A15EE901ADBED33
:1046A800017A45F8221066EE277AF4EEE67AF1EE02
:1046B80010FA1AD9F4EEC77A0BF1080BF1EE10FADA
:1046C80067FE277AFEEEE47A17EE901A43F8221076
:1046D80002329442CDD838E643F8210002310BF17A
:1046E800080B8C423FF6FAAD2FE643F8220002325F
:1046F8000BF1080B9442BCD827E600BFAC09002494
:104708000000003804FF7F3F00FEFF460280FFFFE5
:10471800000000347E0080FF0000003004FF7FBFEF
:10472800002C3FF461AFD8ED0C6A01461FED067A04
:104738000022331D844656F82200083107EE900AFD
:1047480053F822000232F8EEE77A944267EE877A4D
:1047580067EEA67A41ED027A07EE900AF8EEE77A5C
:1047680067EE877A67EEA67A41ED017AE3D860466C
:1047780022465946D047002298ED0D6A2B1D5FED61
:10478800196A9D489FEDA17ADBED007A014666EE35
:10479800277AF4EEE67AF1EE10FA0BD9F4EEC77A3E
:1047A800F1EE10FA67FE277AF0EE675AFEEEE05A4D
:1047B80015EE901ADBED017A45F8221066EE277A9D
:1047C800F4EEE67AF1EE10FA11D9F4EEC77A0BF1AD
:1047D800080BF1EE10FA67FE277AFEEEE07A17EE84
:1047E800901A43F8221002329442CDD8ADE543F82E
:1047F800220002320BF1080B9442C5D8A5E5BA682D
:10480800BB69D7E907019847D7F810D02C37BD46C0
:10481800BDE8F08F48F82060023084423FF673AE5E
:10482800F2E73146C0E63146A3E6314686E6A00007
:1048380049466208012B00F1070020F00700ADEBA4
:10484800000DEB46ADEB000DBA606846ADEB090D07
:104858000BEB8209EC46C7F81CD0ADEB010D00EB61
:104868008201CCE900B9C7F820D0009001917FF40B
:10487800CBAD002C00F01C8298ED0C6A331DDFEDE7
:104888005F6A56F82A1081F40001A1F5000107EECD
:10489800901A53F82A1081F40001B8EEE77AA1F5CE
:1048A800000127EE267A07EE901A4FEA5A010AF11C
:1048B800020AF8EEE77A0BEB810027EE067A09EB9D
:1048C8008101544567EEA67A80ED007A67EE867A14
:1048D800C1ED007AD5D8BB69D7E9070198473B6A8B
:1048E80098ED0D7AD3E900CE7B6A022B00F0D282D4
:1048F800D8F82C300020FA68DFED436A03EB820A0F
:104908003B6A9FED426A0AF104083D4ED3E9029BD7
:104918002B1D42080CEB82019200D1ED007A67EE64
:10492800277AF4EEE67AF1EE10FA63D9F4EEC67A55
:10493800F1EE10FA66FE277AF0EE675AFEEEE45AB8
:1049480015EE901A45F820100EEB0201D1ED007A11
:1049580067EE277AF4EEE67AF1EE10FA48D9F4EE2B
:10496800C67AF1EE10FA66FE277AF0EE675AFEEE86
:10497800E45A15EE901A43F8201009EB0201D1ED24
:10498800007A67EE277AF4EEE67AF1EE10FA2DD97E
:10499800F4EEC67AF1EE10FA66FE277AF0EE675A60
:1049A800FEEEE45A15EE901A5A444AF82010D2ED59
:1049B800007A67EE277AF4EEE67AF1EE10FA0FD96C
:1049C800F4EEC67AF1EE10FA66FE277AFEEEE47A85
:1049D80017EE902A48F820200230844299D813E72D
:1049E80048F820600230844293D80DE73146DBE76F
:1049F8003146C0E73146A5E7007E0080000000345C
:104A08007E0080FF0000003004FF7FBF04FF7F3F6F
:104A1800002C00F04D817B6A022B00F07781D8F8DA
:104A28002430FA687D6103EB820CFB695FED0B5A59
:104A380000220CF1040ED3E902A1331D0D4656F8ED
:104A48002210D8ED0C7A07EE101A53F82210B8EE9F
:104A5800C76A07EE101A5CF82210F8EEC76A07EE6C
:104A6800101A26EE256A5EF82210B8EEC77A66EEAE
:104A7800A56A26EE276A27EE257A66EEA76A27EE4C
:104A8800277A07EE901A51080232F8EEE77A0BEB14
:104A98008100944280ED006A09EB810067EEA57AF7
:104AA800C0ED006A0AEB810005EB810180ED007A18
:104AB80098ED0C7A67EE877AC1ED007ABFD87D69E8
:104AC800BB69BA68D7E9070198473B6A98ED0D7A40
:104AD800D3E900CE7B6A022B00F08881D8F82C300D
:104AE8000020FA685FED386A03EB820A3B6A1FED23
:104AF800396A0AF10408DF4ED3E9029B2B1D4208EC
:104B08000CEB82019200D1ED007A67EE277AF4EE81
:104B1800E67AF1EE10FA63D9F4EEC67AF1EE10FAFD
:104B280066FE277AF0EE675AFEEEE05A15EE901A06
:104B380045F820100EEB0201D1ED007A67EE277AD6
:104B4800F4EEE67AF1EE10FA48D9F4EEC67AF1EE10
:104B580010FA66FE277AF0EE675AFEEEE05A15EE76
:104B6800901A43F8201009EB0201D1ED007A67EEA4
:104B7800277AF4EEE67AF1EE10FA2DD9F4EEC67A39
:104B8800F1EE10FA66FE277AF0EE675AFEEEE05A6A
:104B980015EE901A5A444AF82010D2ED007A67EEC2
:104BA800277AF4EEE67AF1EE10FA0FD9F4EEC67A27
:104BB800F1EE10FA66FE277AFEEEE07A17EE902AFA
:104BC80048F820200230844299D81DE648F8206031
:104BD8000230844293D817E63146DBE73146C0E716
:104BE8003146A5E7002C63D0D8F824305246F9683E
:104BF8007D6003EB810CDFEDA05A331D7D690CF15C
:104C0800040E56F82210D8ED0C7A81F40001A1F5B3
:104C1800000107EE101A53F8221081F40001B8EED3
:104C2800C76AA1F5000126EE256A07EE101A5CF89E
:104C3800221081F40001F8EEC76A26EE276AA1F572
:104C4800000166EEA56A07EE101A5EF82210B8EEAB
:104C5800C77A81F4000166EEA76AA1F5000127EE84
:104C6800257A27EE277A07EE901A51080232F8EED5
:104C7800E77A0BEB810A94428AED006A09EB810A14
:104C880067EEA57ACAED006A05EB810A00EB81019F
:104C98008AED007A98ED0C7A67EE877AC1ED007A92
:104CA800AFD8BB69D7E90152D7E90701984716E69B
:104CB8000022BB69D7E907019847A5E51A4698ED90
:104CC8000C6ADFED6E6A331D36F9221007EE101AF2
:104CD80033F9221007EE901AB8EEC77A510802325B
:104CE800F8EEE77A27EE267A0BEB8100944209EB7F
:104CF800810167EEA67A27EE067A67EE867A80ED5E
:104D0800007AC1ED007ADFD8FFF7DCBB98ED0C6ABA
:104D18000022DFED5B6A331D56F8221007EE901A69
:104D280053F82210B8EEE77A07EE901A51080232CB
:104D3800F8EEE77A27EE267A0BEB8100944209EB2E
:104D4800810167EEA67A27EE067A67EE867A80ED0D
:104D5800007AC1ED007ADFD8B2E60021DFED4B6AB8
:104D68009FED4B6A2B1DDFED475A47484A08064618
:104D78000CEB82089200D8ED007A67EE277AF4EE01
:104D8800E67AF1EE10FA0CD9F4EEC67AF1EE10FAE2
:104D980066FE277A67EEA57AFDEEE77A17EE906A47
:104DA80036B2724445F82160D2ED007A67EE277A70
:104DB800F4EEE67AF1EE10FA12D9F4EEC67AF1EED4
:104DC80010FA66FE277A67EEA57AFDEEE77A17EE07
:104DD800902A12B243F8212002318C42C6D813E53A
:104DE80043F8210002318C42C0D80DE50021DFEDE7
:104DF800276A9FED276A2B1D1E484A0806460CEBBA
:104E080082089200D8ED007A67EE277AF4EEE67A07
:104E1800F1EE10FA0BD9F4EEC67AF1EE10FA66FE4E
:104E2800277AF0EE675AFEEEE05A15EE906A724461
:104E380045F82160D2ED007A67EE277AF4EEE67A3B
:104E4800F1EE10FA0FD9F4EEC67AF1EE10FA66FE1A
:104E5800277AFEEEE07A17EE902A43F821200231F5
:104E68008C42CAD8D0E443F8210002318C42C4D81D
:104E7800CAE400BF007E0080000000340000003853
:104E88000000003000FEFF460280FFFF04FF7FBFE6
:104E980004FF7F3F00215FED036A1FED036A2B1DAE
:104EA8001E484A0806460CEB82089200D8ED007AA4
:104EB80067EE277AF4EEE67AF1EE10FA0BD9F4EE03
:104EC800C67AF1EE10FA66FE277AF0EE675AFEEE21
:104ED800E45A15EE906A724445F82160D2ED007AE2
:104EE80067EE277AF4EEE67AF1EE10FA0FD9F4EECF
:104EF800C67AF1EE10FA66FE277AFEEEE47A17EE2D
:104F0800902A43F8212002318C42CAD87CE443F825
:104F1800210002318C42C4D876E400BF7E0080FFB5
:104F280030B5184C85B01546046004F1080E0FC959
:104F38008EE80F00D4ED047AF5EEC07A8DE80F0004
:104F4800F1EE10FA1ADDB7EE006A94ED057A27EE55
:104F5800277AC6EE276A84ED0D7AC4ED0C6A6DB126
:104F6800204640F8185F02F0EDFA0749036900206F
:104F7800064A2162A262E36005B030BD012005B097
:104F880030BD00BF90090024002000300000003030
:104F980000680830704700BFB1F5807F03680A4693
:104FA80028BF4FF48072B1F5807F9A6094BF0020CB
:104FB800012070470068183002F01CBB30B5046847
:104FC80083B00D46E3694BB1A3680020E26A616AC9
:104FD8009B00009004F11C0002F0B6FAA368074891
:104FE800A26A9B00216A009004F1180002F0ACFA52
:104FF8000020C4E9005003B030BD00BF15420008CE
:10500800064B302003214FF07E52C3E902010020F5
:1050180000211A615A61C3E906017047900900240A
:10502800F6EE006A9FED166A20EE207A0160F7EE30
:10503800007A80ED036A80ED020A27EE267AC7EE31
:10504800876AF4EEE76AF1EE10FA08DCF4EEC66A55
:10505800F1EE10FA54BFF0EE667AF0EE467A4FF0B1
:105068007E514FF0000C02760022C0ED017AC0F8A4
:1050780014C0016143768276C0ED070A704700BF0D
:10508800000000000268037E128807EE902AFBEEFB
:10509800C87A1BB1B7EE007A77EE677AD0ED056A69
:1050A80090ED047A77EEE67A437E67EE877A0BB165
:1050B800F1EE677A90ED030A90ED017A77EEC07A07
:1050C800A7EE270A80ED030A704700BF30B50446F3
:1050D80087B00025ADF81410ADF81020ADF80C30ED
:1050E80002F05EFB2A462060059904F12C00257128
:1050F8000123009500F030FE01232A46049904F1AB
:105108004000009500F028FE9FED060A039904F17F
:10511800080000F0ADF84FF6FF73A565A4F8543009
:1051280007B030BD00000000F8B5044602F038FBB7
:10513800002723682771834205D104F10800BDE8E0
:10514800F84000F0ABB8012694F85450206004F100
:105158002C00B540267100F00DFF6DB2284394F87D
:105168005550B54084F8540004F1400000F002FFA7
:1051780094F854306DB2A76503F003032843022B5B
:1051880040B284F8550000F0030007D0002BD4D1BA
:105198000228D2D14FF0FF33A365CEE70028CCD147
:1051A800A665CAE770B584B0002504461646ADF872
:1051B8000C102B462A460399009500F0CDFDA582D8
:1051C800A67504B070BD00BF30B52DED028B85B05B
:1051D8009FED128A04469DF82850B0EE480AADF8B3
:1051E8000C100399ADF808202A46ADF804300CF0ED
:1051F8009DFBB0EE480A2A46029904F12C000CF0F7
:1052080095FBB0EE480A2A46019904F1580005B00A
:10521800BDEC028BBDE830400CF088BB00007A443E
:1052280010B52DED028BF0EE608A0446B0EE418A8F
:105238000CF0A6FB04F12C00B0EE680A0CF0A0FB01
:10524800B0EE480A04F15800BDEC028BBDE81040EE
:105258000CF096BB10B504460CF0A4FB04F12C002E
:105268000CF0A0FB04F15800BDE810400CF09ABB0C
:1052780010B586B00446ADF8141002F091FA4FF458
:105288008071002220600123A18004F10800A1831D
:105298000599009200F060FD06B010BD10B50446F7
:1052A80002F07EFA002122682171824200D110BDED
:1052B8000346012204F108002360227100F05AFE1F
:1052C800627F237F504040EA4300C0B27F282077A6
:1052D800EDD102F065FA07EE900AF8EE677AC4EDB0
:1052E800087A10BD10B4002383B00324018080F82D
:1052F800503080F85120C0E9014303B05DF8044BF9
:10530800704700BF2DE9F04F0024BE4F8DB0BE4D51
:1053180003708046BD4B16464260894620222146CE
:105328003846C5F88835C5F88475CDE90144CDE916
:105338000344CDE90544CDE90744CDE9094412F019
:10534800DBFA2022214605F26250C5F85145C5F81E
:105358005545C5F85945C5F85D4512F0CDFA85F8AB
:105368005065D8F8043085F86846002B00F079813C
:1053780005F5AA6A09F1500B2646522209EB0401E9
:105388002819013612F0F8FA4FF0000327F8023B0B
:105398001BF804200AF8012FD8F8043062B14FF046
:1053A8000102B34204F1540485F86826E5D895F85B
:1053B8005065002201230BE09E4204F15404DCD323
:1053C80095F8683695F85065002BF3D10122032330
:1053D80085F8A125012198F800200027C5F8B835DF
:1053E8000023C5F8A4650026C5F8943585F8A035CE
:1053F80085F8A835C5F8BC35C5F8C035844BC5F85F
:105408009815C5F88C354FF48023C5F890350823D6
:10541800C5F89C357F4BC3E900679AB1002085F831
:10542800C415013A0121E3E90801082A0CD8DFE88C
:1054380012F0FB00E400DF00DA00D500D000CA005B
:10544800C300BC0085F8C425734803F051F903462E
:1054580008B1FFBEFEE701A96F48019303F0ACFA5B
:10546800002840F0A080042340F2FF720990CDE9A3
:10547800072395F85035002B49D0684F8146DFF84F
:10548800A4A14FF0070BA7F22C5494F83D30072B3A
:1054980007D8DFE803F082857F79767C3F04CDF872
:1054A80018B0A4F1140000F04DFB94F83C30042B24
:1054B8003ADC022B00F3CE8000F0C98000233B7059
:1054C80014F8143C14F8132C002B40D0022B00F0D5
:1054D800B080012B05D1012A00F0C980002A00F014
:1054E800D2800023049304A95AF8043B4A48059340
:1054F80002F04AFD002840F0BC8009F1010995F846
:105508005025013754345FFA89F39A42BDD80DB05B
:10551800BDE8F08F0623A4F11400069300F012FBF7
:1055280094F83C30042BC4DD03233B70A0460026CE
:105538004046013600F006FB3B7808F11408B342F8
:10554800F6DC14F8143C14F8132C002BBED1062AF0
:1055580000F08380072A00F09280022A00F09580EC
:10556800032A00F09680002A00F09180012A00F0BA
:105578009280042A00F09180052A294A08BF134620
:10558800B0E7042306938CE70323069389E70523F2
:10559800069386E70223069383E70023069380E7B2
:1055A800012306937DE7FFBEFEE740F2FF304FF48C
:1055B800A07143E9020147E740F2FF104FF49071F0
:1055C80043E9020140E7FF204FF4807143E90201FB
:1055D8003AE77F20E02143E9020135E73F20C02177
:1055E80043E9020130E71F20A02143E902012BE72C
:1055F8000F20802143E9020126E70720602143E9C3
:10560800020121E700400030C80900244040003072
:1056180000200240780F0024540F0024080F0024B3
:105628000000B84FE47C01080320402143E902014F
:105638000AE7042A13D0052A17D0E2B1012A1CD0A0
:10564800022A1ED0032A7FF44CAF154B4AE70123E8
:105658003B706BE702233B7068E7124B42E7124B43
:1056680040E7F6B201220323B2E6104B3AE7104BAB
:1056780038E7FFBEFEE70F4B34E70F4B32E70F4B1F
:1056880030E70F4B2EE70F4B2CE70F4B2AE70F4B5A
:1056980028E70F4B26E70F4B24E70F4B22E700BF05
:1056A800002090360800900C1000C01000018021E6
:1056B8002000F0140004002A0008302E8000501D3D
:1056C800001060320002B0250040C03A00002143BB
:1056D8000080F03E000052470000844B10B5084C93
:1056E80040F2FF724FF00111204603F013F914F84D
:1056F8003C2C54F8081C2046BDE8104002F084BE3B
:10570800540F0024034B0F29D3F8840598BF00EBEE
:1057180041007047C8090024234B02689A4200D010
:105728007047224A00232248D2F8D81010B5214CDD
:1057380082B041F02001C4F8F0050920C4F8F8351A
:10574800C4F8F4054FF48060C2F8D810D2F8D82015
:10575800C4F8FC3502F02002C4F81036C4F8143638
:1057680001924FF40052019B94F86836C4F8000681
:105778004FF4006083F00103C4F80826C4F8040657
:1057880004F5BE601B02C4F80C3603F03BFB08B1FD
:10579800FFBEFEE704F28C5304F5BE62C4F8283657
:1057A800C4F8D82502B010BD0020024000440258B9
:1057B80040000240C8090024014804F04BBB00BF68
:1057C800B80F0024444B02689A4200D070472DE974
:1057D800F047424D95F868360BB9BDE8F08795F863
:1057E8005025002A48D005F5AC6605F13C0805F5BA
:1057F800AA67002413E003F001013380A8F1280010
:1058080017F811AC00F0C2FBBAF1010F23D895F8D4
:105818005025013408F15408A3B29A422AD917F83E
:10582800013F0236002BF4D0D5F8843500213278B8
:1058380033F81400D5F8883503EB041323F8120065
:1058480033883A7801339BB29A425FFA83F9D2D807
:105858000B468946D1E7C9F34001A8F1140000F0CE
:1058680095FBBAF1020FC9F38001D0D0404600F091
:105878008DFBCCE795F8683683F001031849194C7D
:1058880000221B02C5F8F0150921A4F11000C5F883
:105898000C364FF40063C5F8F4154FF4806163606B
:1058A8004FF40053C5F8F825C5F8FC25C5F80016CF
:1058B800C5F81026C5F81426A36003F0A3FA08B1AA
:1058C800FFBEFEE795F85025A4F17400D5F88415BD
:1058D800BDE8F04702F098BD00200240C809002446
:1058E80040000240C80F0024704700BF0C4B4FF621
:1058F8000B71002203F5A8601980DA6099821A6298
:1059080019855A6399879A64C3E90122C3E9062273
:10591800C3E90B22C3E9102254339842ECD17047F3
:10592800C809002484460FC98CE80F009CF8003091
:105938000B2B47D000B59CF801E091B0BEF10F0FDA
:105948003DD802293FD0032904D0A1F10101B1FAC1
:1059580081F14909DCF808200C91012A05D0A2F14F
:105968000202B2FA82F252095200DCF80C100D92CF
:10597800022906D0032904D0A1F10101B1FA81F16D
:1059880049090A2B0E910FD8624A591E02EB83234C
:10599800CCF81030092900F2AE80DFE801F0253498
:1059A800435261707F8E9D1600231846CCF8103044
:1059B80001230BA903FA0EF30B9304F05FFC11B05B
:1059C8005DF804FB70471121C4E7534B5348D3F8E3
:1059D800E02042F48062C3F8E020D3F8E03003F41A
:1059E80080630A930A9BE3E74B4B4D48D3F8E020CA
:1059F80042F00202C3F8E020D3F8E03003F00203DB
:105A08000193019BD4E7444B4648D3F8E02042F089
:105A18000402C3F8E020D3F8E03003F00403029353
:105A2800029BC5E73C4B4048D3F8E02042F008020F
:105A3800C3F8E020D3F8E03003F008030393039B96
:105A4800B6E7354B3948D3F8E02042F01002C3F8E6
:105A5800E020D3F8E03003F010030493049BA7E799
:105A68002D4B3348D3F8E02042F02002C3F8E02061
:105A7800D3F8E03003F020030593059B98E7264B05
:105A88002C48D3F8E02042F04002C3F8E020D3F8D5
:105A9800E03003F040030693069B89E71E4B264837
:105AA800D3F8E02042F08002C3F8E020D3F8E030D9
:105AB80003F080030793079B7AE7174B1F48D3F837
:105AC800E02042F48072C3F8E020D3F8E03003F419
